{
  "_format": "hh-sol-artifact-1",
  "contractName": "LoveChain",
  "sourceName": "contracts/Dstore.sol",
  "abi": [
    {
      "inputs": [],
      "stateMutability": "nonpayable",
      "type": "constructor"
    },
    {
      "anonymous": false,
      "inputs": [
        {
          "indexed": true,
          "internalType": "address",
          "name": "owner",
          "type": "address"
        },
        {
          "indexed": true,
          "internalType": "address",
          "name": "approved",
          "type": "address"
        },
        {
          "indexed": true,
          "internalType": "uint256",
          "name": "tokenId",
          "type": "uint256"
        }
      ],
      "name": "Approval",
      "type": "event"
    },
    {
      "anonymous": false,
      "inputs": [
        {
          "indexed": true,
          "internalType": "address",
          "name": "owner",
          "type": "address"
        },
        {
          "indexed": true,
          "internalType": "address",
          "name": "operator",
          "type": "address"
        },
        {
          "indexed": false,
          "internalType": "bool",
          "name": "approved",
          "type": "bool"
        }
      ],
      "name": "ApprovalForAll",
      "type": "event"
    },
    {
      "anonymous": false,
      "inputs": [
        {
          "indexed": false,
          "internalType": "uint256",
          "name": "_fromTokenId",
          "type": "uint256"
        },
        {
          "indexed": false,
          "internalType": "uint256",
          "name": "_toTokenId",
          "type": "uint256"
        }
      ],
      "name": "BatchMetadataUpdate",
      "type": "event"
    },
    {
      "anonymous": false,
      "inputs": [
        {
          "indexed": true,
          "internalType": "uint256",
          "name": "fileId",
          "type": "uint256"
        },
        {
          "indexed": false,
          "internalType": "uint256",
          "name": "fileCount",
          "type": "uint256"
        },
        {
          "indexed": false,
          "internalType": "string",
          "name": "fileHash",
          "type": "string"
        },
        {
          "indexed": false,
          "internalType": "uint256",
          "name": "fileSize",
          "type": "uint256"
        },
        {
          "indexed": false,
          "internalType": "string",
          "name": "fileType",
          "type": "string"
        },
        {
          "indexed": false,
          "internalType": "string",
          "name": "fileName",
          "type": "string"
        },
        {
          "indexed": false,
          "internalType": "uint256",
          "name": "folderId",
          "type": "uint256"
        },
        {
          "indexed": false,
          "internalType": "string",
          "name": "fileDescription",
          "type": "string"
        },
        {
          "indexed": false,
          "internalType": "uint256",
          "name": "uploadTime",
          "type": "uint256"
        },
        {
          "indexed": false,
          "internalType": "address",
          "name": "sender",
          "type": "address"
        }
      ],
      "name": "FileCreated",
      "type": "event"
    },
    {
      "anonymous": false,
      "inputs": [
        {
          "indexed": true,
          "internalType": "uint256",
          "name": "_id",
          "type": "uint256"
        },
        {
          "indexed": false,
          "internalType": "string",
          "name": "foldername",
          "type": "string"
        }
      ],
      "name": "FolderCreated",
      "type": "event"
    },
    {
      "anonymous": false,
      "inputs": [
        {
          "indexed": true,
          "internalType": "uint256",
          "name": "tokenId",
          "type": "uint256"
        },
        {
          "indexed": false,
          "internalType": "address",
          "name": "seller",
          "type": "address"
        },
        {
          "indexed": false,
          "internalType": "address",
          "name": "owner",
          "type": "address"
        },
        {
          "indexed": false,
          "internalType": "uint256",
          "name": "price",
          "type": "uint256"
        },
        {
          "indexed": false,
          "internalType": "bool",
          "name": "sold",
          "type": "bool"
        },
        {
          "indexed": false,
          "internalType": "string",
          "name": "name",
          "type": "string"
        },
        {
          "indexed": false,
          "internalType": "string",
          "name": "description",
          "type": "string"
        },
        {
          "indexed": false,
          "internalType": "string",
          "name": "image",
          "type": "string"
        }
      ],
      "name": "MarketItemCreated",
      "type": "event"
    },
    {
      "anonymous": false,
      "inputs": [
        {
          "indexed": false,
          "internalType": "uint256",
          "name": "_tokenId",
          "type": "uint256"
        }
      ],
      "name": "MetadataUpdate",
      "type": "event"
    },
    {
      "anonymous": false,
      "inputs": [
        {
          "indexed": true,
          "internalType": "address",
          "name": "from",
          "type": "address"
        },
        {
          "indexed": true,
          "internalType": "address",
          "name": "to",
          "type": "address"
        },
        {
          "indexed": true,
          "internalType": "uint256",
          "name": "tokenId",
          "type": "uint256"
        }
      ],
      "name": "Transfer",
      "type": "event"
    },
    {
      "anonymous": false,
      "inputs": [
        {
          "indexed": false,
          "internalType": "uint256",
          "name": "id",
          "type": "uint256"
        },
        {
          "indexed": false,
          "internalType": "address payable",
          "name": "_address",
          "type": "address"
        },
        {
          "indexed": false,
          "internalType": "string",
          "name": "name",
          "type": "string"
        },
        {
          "indexed": false,
          "internalType": "string",
          "name": "image",
          "type": "string"
        },
        {
          "indexed": false,
          "internalType": "string",
          "name": "profile",
          "type": "string"
        },
        {
          "indexed": false,
          "internalType": "string",
          "name": "gender",
          "type": "string"
        },
        {
          "indexed": false,
          "internalType": "string",
          "name": "year",
          "type": "string"
        },
        {
          "indexed": false,
          "internalType": "string",
          "name": "country",
          "type": "string"
        },
        {
          "indexed": false,
          "internalType": "uint256",
          "name": "balance",
          "type": "uint256"
        }
      ],
      "name": "UserCreated",
      "type": "event"
    },
    {
      "inputs": [
        {
          "internalType": "uint256",
          "name": "_folderId",
          "type": "uint256"
        },
        {
          "internalType": "string",
          "name": "_fileHash",
          "type": "string"
        },
        {
          "internalType": "uint256",
          "name": "_fileSize",
          "type": "uint256"
        },
        {
          "internalType": "string",
          "name": "_fileType",
          "type": "string"
        },
        {
          "internalType": "string",
          "name": "_fileName",
          "type": "string"
        },
        {
          "internalType": "string",
          "name": "_fileDescription",
          "type": "string"
        }
      ],
      "name": "addFiles",
      "outputs": [],
      "stateMutability": "nonpayable",
      "type": "function"
    },
    {
      "inputs": [
        {
          "internalType": "string",
          "name": "_platformName",
          "type": "string"
        },
        {
          "internalType": "string",
          "name": "token",
          "type": "string"
        },
        {
          "internalType": "string",
          "name": "_projectid",
          "type": "string"
        },
        {
          "internalType": "string",
          "name": "_projectsecret",
          "type": "string"
        }
      ],
      "name": "addPlatform",
      "outputs": [],
      "stateMutability": "nonpayable",
      "type": "function"
    },
    {
      "inputs": [
        {
          "internalType": "address",
          "name": "to",
          "type": "address"
        },
        {
          "internalType": "uint256",
          "name": "tokenId",
          "type": "uint256"
        }
      ],
      "name": "approve",
      "outputs": [],
      "stateMutability": "nonpayable",
      "type": "function"
    },
    {
      "inputs": [
        {
          "internalType": "address",
          "name": "owner",
          "type": "address"
        }
      ],
      "name": "balanceOf",
      "outputs": [
        {
          "internalType": "uint256",
          "name": "",
          "type": "uint256"
        }
      ],
      "stateMutability": "view",
      "type": "function"
    },
    {
      "inputs": [
        {
          "internalType": "string",
          "name": "_foldername",
          "type": "string"
        },
        {
          "internalType": "uint256",
          "name": "_platformId",
          "type": "uint256"
        }
      ],
      "name": "createFolder",
      "outputs": [],
      "stateMutability": "nonpayable",
      "type": "function"
    },
    {
      "inputs": [
        {
          "internalType": "uint256",
          "name": "tokenId",
          "type": "uint256"
        }
      ],
      "name": "createMarketSale",
      "outputs": [],
      "stateMutability": "payable",
      "type": "function"
    },
    {
      "inputs": [
        {
          "internalType": "string",
          "name": "_name",
          "type": "string"
        },
        {
          "internalType": "string",
          "name": "_image",
          "type": "string"
        },
        {
          "internalType": "string",
          "name": "_profile",
          "type": "string"
        },
        {
          "internalType": "string",
          "name": "_gender",
          "type": "string"
        },
        {
          "internalType": "string",
          "name": "_year",
          "type": "string"
        },
        {
          "internalType": "string",
          "name": "_country",
          "type": "string"
        }
      ],
      "name": "createProfile",
      "outputs": [],
      "stateMutability": "nonpayable",
      "type": "function"
    },
    {
      "inputs": [
        {
          "internalType": "string",
          "name": "tokenURI",
          "type": "string"
        },
        {
          "internalType": "uint256",
          "name": "price",
          "type": "uint256"
        },
        {
          "internalType": "string",
          "name": "_name",
          "type": "string"
        },
        {
          "internalType": "string",
          "name": "_description",
          "type": "string"
        },
        {
          "internalType": "string",
          "name": "_image",
          "type": "string"
        }
      ],
      "name": "createToken",
      "outputs": [
        {
          "internalType": "uint256",
          "name": "",
          "type": "uint256"
        }
      ],
      "stateMutability": "payable",
      "type": "function"
    },
    {
      "inputs": [],
      "name": "fetchAllUsers",
      "outputs": [
        {
          "components": [
            {
              "internalType": "uint256",
              "name": "id",
              "type": "uint256"
            },
            {
              "internalType": "address payable",
              "name": "_address",
              "type": "address"
            },
            {
              "internalType": "string",
              "name": "name",
              "type": "string"
            },
            {
              "internalType": "string",
              "name": "image",
              "type": "string"
            },
            {
              "internalType": "string",
              "name": "profile",
              "type": "string"
            },
            {
              "internalType": "string",
              "name": "gender",
              "type": "string"
            },
            {
              "internalType": "string",
              "name": "year",
              "type": "string"
            },
            {
              "internalType": "string",
              "name": "country",
              "type": "string"
            },
            {
              "internalType": "uint256",
              "name": "balance",
              "type": "uint256"
            }
          ],
          "internalType": "struct LoveChain.User[]",
          "name": "",
          "type": "tuple[]"
        }
      ],
      "stateMutability": "view",
      "type": "function"
    },
    {
      "inputs": [],
      "name": "fetchItemsListed",
      "outputs": [
        {
          "components": [
            {
              "internalType": "uint256",
              "name": "tokenId",
              "type": "uint256"
            },
            {
              "internalType": "address payable",
              "name": "seller",
              "type": "address"
            },
            {
              "internalType": "address payable",
              "name": "owner",
              "type": "address"
            },
            {
              "internalType": "uint256",
              "name": "price",
              "type": "uint256"
            },
            {
              "internalType": "bool",
              "name": "sold",
              "type": "bool"
            },
            {
              "internalType": "string",
              "name": "name",
              "type": "string"
            },
            {
              "internalType": "string",
              "name": "description",
              "type": "string"
            },
            {
              "internalType": "string",
              "name": "image",
              "type": "string"
            }
          ],
          "internalType": "struct LoveChain.MarketItem[]",
          "name": "",
          "type": "tuple[]"
        }
      ],
      "stateMutability": "view",
      "type": "function"
    },
    {
      "inputs": [],
      "name": "fetchMarketItems",
      "outputs": [
        {
          "components": [
            {
              "internalType": "uint256",
              "name": "tokenId",
              "type": "uint256"
            },
            {
              "internalType": "address payable",
              "name": "seller",
              "type": "address"
            },
            {
              "internalType": "address payable",
              "name": "owner",
              "type": "address"
            },
            {
              "internalType": "uint256",
              "name": "price",
              "type": "uint256"
            },
            {
              "internalType": "bool",
              "name": "sold",
              "type": "bool"
            },
            {
              "internalType": "string",
              "name": "name",
              "type": "string"
            },
            {
              "internalType": "string",
              "name": "description",
              "type": "string"
            },
            {
              "internalType": "string",
              "name": "image",
              "type": "string"
            }
          ],
          "internalType": "struct LoveChain.MarketItem[]",
          "name": "",
          "type": "tuple[]"
        }
      ],
      "stateMutability": "view",
      "type": "function"
    },
    {
      "inputs": [],
      "name": "fetchMyNFTs",
      "outputs": [
        {
          "components": [
            {
              "internalType": "uint256",
              "name": "tokenId",
              "type": "uint256"
            },
            {
              "internalType": "address payable",
              "name": "seller",
              "type": "address"
            },
            {
              "internalType": "address payable",
              "name": "owner",
              "type": "address"
            },
            {
              "internalType": "uint256",
              "name": "price",
              "type": "uint256"
            },
            {
              "internalType": "bool",
              "name": "sold",
              "type": "bool"
            },
            {
              "internalType": "string",
              "name": "name",
              "type": "string"
            },
            {
              "internalType": "string",
              "name": "description",
              "type": "string"
            },
            {
              "internalType": "string",
              "name": "image",
              "type": "string"
            }
          ],
          "internalType": "struct LoveChain.MarketItem[]",
          "name": "",
          "type": "tuple[]"
        }
      ],
      "stateMutability": "view",
      "type": "function"
    },
    {
      "inputs": [
        {
          "internalType": "address",
          "name": "",
          "type": "address"
        },
        {
          "internalType": "uint256",
          "name": "",
          "type": "uint256"
        }
      ],
      "name": "folder",
      "outputs": [
        {
          "internalType": "uint256",
          "name": "platformId",
          "type": "uint256"
        },
        {
          "internalType": "uint256",
          "name": "folderCount",
          "type": "uint256"
        },
        {
          "internalType": "uint256",
          "name": "id",
          "type": "uint256"
        },
        {
          "internalType": "string",
          "name": "folderName",
          "type": "string"
        },
        {
          "components": [
            {
              "internalType": "uint256",
              "name": "fileId",
              "type": "uint256"
            },
            {
              "internalType": "uint256",
              "name": "fileCount",
              "type": "uint256"
            },
            {
              "internalType": "string",
              "name": "fileHash",
              "type": "string"
            },
            {
              "internalType": "uint256",
              "name": "fileSize",
              "type": "uint256"
            },
            {
              "internalType": "string",
              "name": "fileType",
              "type": "string"
            },
            {
              "internalType": "string",
              "name": "fileName",
              "type": "string"
            },
            {
              "internalType": "uint256",
              "name": "folderId",
              "type": "uint256"
            },
            {
              "internalType": "string",
              "name": "fileDescription",
              "type": "string"
            },
            {
              "internalType": "uint256",
              "name": "uploadTime",
              "type": "uint256"
            },
            {
              "internalType": "address",
              "name": "sender",
              "type": "address"
            }
          ],
          "internalType": "struct LoveChain.File",
          "name": "files",
          "type": "tuple"
        },
        {
          "internalType": "address",
          "name": "owner",
          "type": "address"
        }
      ],
      "stateMutability": "view",
      "type": "function"
    },
    {
      "inputs": [
        {
          "internalType": "uint256",
          "name": "tokenId",
          "type": "uint256"
        }
      ],
      "name": "getApproved",
      "outputs": [
        {
          "internalType": "address",
          "name": "",
          "type": "address"
        }
      ],
      "stateMutability": "view",
      "type": "function"
    },
    {
      "inputs": [
        {
          "internalType": "uint256",
          "name": "_folderId",
          "type": "uint256"
        }
      ],
      "name": "getFiles",
      "outputs": [
        {
          "components": [
            {
              "internalType": "uint256",
              "name": "fileId",
              "type": "uint256"
            },
            {
              "internalType": "uint256",
              "name": "fileCount",
              "type": "uint256"
            },
            {
              "internalType": "string",
              "name": "fileHash",
              "type": "string"
            },
            {
              "internalType": "uint256",
              "name": "fileSize",
              "type": "uint256"
            },
            {
              "internalType": "string",
              "name": "fileType",
              "type": "string"
            },
            {
              "internalType": "string",
              "name": "fileName",
              "type": "string"
            },
            {
              "internalType": "uint256",
              "name": "folderId",
              "type": "uint256"
            },
            {
              "internalType": "string",
              "name": "fileDescription",
              "type": "string"
            },
            {
              "internalType": "uint256",
              "name": "uploadTime",
              "type": "uint256"
            },
            {
              "internalType": "address",
              "name": "sender",
              "type": "address"
            }
          ],
          "internalType": "struct LoveChain.File[]",
          "name": "",
          "type": "tuple[]"
        }
      ],
      "stateMutability": "view",
      "type": "function"
    },
    {
      "inputs": [
        {
          "internalType": "uint256",
          "name": "_platformId",
          "type": "uint256"
        }
      ],
      "name": "getFolders",
      "outputs": [
        {
          "components": [
            {
              "internalType": "uint256",
              "name": "platformId",
              "type": "uint256"
            },
            {
              "internalType": "uint256",
              "name": "folderCount",
              "type": "uint256"
            },
            {
              "internalType": "uint256",
              "name": "id",
              "type": "uint256"
            },
            {
              "internalType": "string",
              "name": "folderName",
              "type": "string"
            },
            {
              "components": [
                {
                  "internalType": "uint256",
                  "name": "fileId",
                  "type": "uint256"
                },
                {
                  "internalType": "uint256",
                  "name": "fileCount",
                  "type": "uint256"
                },
                {
                  "internalType": "string",
                  "name": "fileHash",
                  "type": "string"
                },
                {
                  "internalType": "uint256",
                  "name": "fileSize",
                  "type": "uint256"
                },
                {
                  "internalType": "string",
                  "name": "fileType",
                  "type": "string"
                },
                {
                  "internalType": "string",
                  "name": "fileName",
                  "type": "string"
                },
                {
                  "internalType": "uint256",
                  "name": "folderId",
                  "type": "uint256"
                },
                {
                  "internalType": "string",
                  "name": "fileDescription",
                  "type": "string"
                },
                {
                  "internalType": "uint256",
                  "name": "uploadTime",
                  "type": "uint256"
                },
                {
                  "internalType": "address",
                  "name": "sender",
                  "type": "address"
                }
              ],
              "internalType": "struct LoveChain.File",
              "name": "files",
              "type": "tuple"
            },
            {
              "internalType": "address",
              "name": "owner",
              "type": "address"
            }
          ],
          "internalType": "struct LoveChain.Folder[]",
          "name": "",
          "type": "tuple[]"
        }
      ],
      "stateMutability": "view",
      "type": "function"
    },
    {
      "inputs": [],
      "name": "getListingPrice",
      "outputs": [
        {
          "internalType": "uint256",
          "name": "",
          "type": "uint256"
        }
      ],
      "stateMutability": "view",
      "type": "function"
    },
    {
      "inputs": [],
      "name": "getPlatforms",
      "outputs": [
        {
          "components": [
            {
              "internalType": "string",
              "name": "platformName",
              "type": "string"
            },
            {
              "internalType": "string",
              "name": "token",
              "type": "string"
            },
            {
              "internalType": "uint256",
              "name": "platform_id",
              "type": "uint256"
            },
            {
              "internalType": "string",
              "name": "platformid",
              "type": "string"
            },
            {
              "internalType": "string",
              "name": "platformsecret",
              "type": "string"
            },
            {
              "internalType": "uint256",
              "name": "platformCount",
              "type": "uint256"
            },
            {
              "internalType": "address",
              "name": "user",
              "type": "address"
            }
          ],
          "internalType": "struct LoveChain.Platform[]",
          "name": "",
          "type": "tuple[]"
        }
      ],
      "stateMutability": "view",
      "type": "function"
    },
    {
      "inputs": [],
      "name": "getSingleUser",
      "outputs": [
        {
          "components": [
            {
              "internalType": "uint256",
              "name": "id",
              "type": "uint256"
            },
            {
              "internalType": "address payable",
              "name": "_address",
              "type": "address"
            },
            {
              "internalType": "string",
              "name": "name",
              "type": "string"
            },
            {
              "internalType": "string",
              "name": "image",
              "type": "string"
            },
            {
              "internalType": "string",
              "name": "profile",
              "type": "string"
            },
            {
              "internalType": "string",
              "name": "gender",
              "type": "string"
            },
            {
              "internalType": "string",
              "name": "year",
              "type": "string"
            },
            {
              "internalType": "string",
              "name": "country",
              "type": "string"
            },
            {
              "internalType": "uint256",
              "name": "balance",
              "type": "uint256"
            }
          ],
          "internalType": "struct LoveChain.User",
          "name": "",
          "type": "tuple"
        }
      ],
      "stateMutability": "view",
      "type": "function"
    },
    {
      "inputs": [
        {
          "internalType": "address",
          "name": "owner",
          "type": "address"
        },
        {
          "internalType": "address",
          "name": "operator",
          "type": "address"
        }
      ],
      "name": "isApprovedForAll",
      "outputs": [
        {
          "internalType": "bool",
          "name": "",
          "type": "bool"
        }
      ],
      "stateMutability": "view",
      "type": "function"
    },
    {
      "inputs": [],
      "name": "isRegistered",
      "outputs": [
        {
          "internalType": "bool",
          "name": "",
          "type": "bool"
        }
      ],
      "stateMutability": "view",
      "type": "function"
    },
    {
      "inputs": [],
      "name": "name",
      "outputs": [
        {
          "internalType": "string",
          "name": "",
          "type": "string"
        }
      ],
      "stateMutability": "view",
      "type": "function"
    },
    {
      "inputs": [
        {
          "internalType": "uint256",
          "name": "tokenId",
          "type": "uint256"
        }
      ],
      "name": "ownerOf",
      "outputs": [
        {
          "internalType": "address",
          "name": "",
          "type": "address"
        }
      ],
      "stateMutability": "view",
      "type": "function"
    },
    {
      "inputs": [
        {
          "internalType": "address",
          "name": "",
          "type": "address"
        },
        {
          "internalType": "uint256",
          "name": "",
          "type": "uint256"
        }
      ],
      "name": "platform",
      "outputs": [
        {
          "internalType": "string",
          "name": "platformName",
          "type": "string"
        },
        {
          "internalType": "string",
          "name": "token",
          "type": "string"
        },
        {
          "internalType": "uint256",
          "name": "platform_id",
          "type": "uint256"
        },
        {
          "internalType": "string",
          "name": "platformid",
          "type": "string"
        },
        {
          "internalType": "string",
          "name": "platformsecret",
          "type": "string"
        },
        {
          "internalType": "uint256",
          "name": "platformCount",
          "type": "uint256"
        },
        {
          "internalType": "address",
          "name": "user",
          "type": "address"
        }
      ],
      "stateMutability": "view",
      "type": "function"
    },
    {
      "inputs": [
        {
          "internalType": "address",
          "name": "",
          "type": "address"
        }
      ],
      "name": "registeredUsers",
      "outputs": [
        {
          "internalType": "bool",
          "name": "",
          "type": "bool"
        }
      ],
      "stateMutability": "view",
      "type": "function"
    },
    {
      "inputs": [
        {
          "internalType": "uint256",
          "name": "tokenId",
          "type": "uint256"
        },
        {
          "internalType": "uint256",
          "name": "price",
          "type": "uint256"
        }
      ],
      "name": "resellToken",
      "outputs": [],
      "stateMutability": "payable",
      "type": "function"
    },
    {
      "inputs": [
        {
          "internalType": "address",
          "name": "from",
          "type": "address"
        },
        {
          "internalType": "address",
          "name": "to",
          "type": "address"
        },
        {
          "internalType": "uint256",
          "name": "tokenId",
          "type": "uint256"
        }
      ],
      "name": "safeTransferFrom",
      "outputs": [],
      "stateMutability": "nonpayable",
      "type": "function"
    },
    {
      "inputs": [
        {
          "internalType": "address",
          "name": "from",
          "type": "address"
        },
        {
          "internalType": "address",
          "name": "to",
          "type": "address"
        },
        {
          "internalType": "uint256",
          "name": "tokenId",
          "type": "uint256"
        },
        {
          "internalType": "bytes",
          "name": "data",
          "type": "bytes"
        }
      ],
      "name": "safeTransferFrom",
      "outputs": [],
      "stateMutability": "nonpayable",
      "type": "function"
    },
    {
      "inputs": [
        {
          "internalType": "address",
          "name": "operator",
          "type": "address"
        },
        {
          "internalType": "bool",
          "name": "approved",
          "type": "bool"
        }
      ],
      "name": "setApprovalForAll",
      "outputs": [],
      "stateMutability": "nonpayable",
      "type": "function"
    },
    {
      "inputs": [
        {
          "internalType": "bytes4",
          "name": "interfaceId",
          "type": "bytes4"
        }
      ],
      "name": "supportsInterface",
      "outputs": [
        {
          "internalType": "bool",
          "name": "",
          "type": "bool"
        }
      ],
      "stateMutability": "view",
      "type": "function"
    },
    {
      "inputs": [],
      "name": "symbol",
      "outputs": [
        {
          "internalType": "string",
          "name": "",
          "type": "string"
        }
      ],
      "stateMutability": "view",
      "type": "function"
    },
    {
      "inputs": [
        {
          "internalType": "uint256",
          "name": "id",
          "type": "uint256"
        }
      ],
      "name": "tipUser",
      "outputs": [],
      "stateMutability": "payable",
      "type": "function"
    },
    {
      "inputs": [
        {
          "internalType": "uint256",
          "name": "tokenId",
          "type": "uint256"
        }
      ],
      "name": "tokenURI",
      "outputs": [
        {
          "internalType": "string",
          "name": "",
          "type": "string"
        }
      ],
      "stateMutability": "view",
      "type": "function"
    },
    {
      "inputs": [
        {
          "internalType": "address",
          "name": "from",
          "type": "address"
        },
        {
          "internalType": "address",
          "name": "to",
          "type": "address"
        },
        {
          "internalType": "uint256",
          "name": "tokenId",
          "type": "uint256"
        }
      ],
      "name": "transferFrom",
      "outputs": [],
      "stateMutability": "nonpayable",
      "type": "function"
    },
    {
      "inputs": [
        {
          "internalType": "uint256",
          "name": "_listingPrice",
          "type": "uint256"
        }
      ],
      "name": "updateListingPrice",
      "outputs": [],
      "stateMutability": "payable",
      "type": "function"
    },
    {
      "inputs": [],
      "name": "userCount",
      "outputs": [
        {
          "internalType": "uint256",
          "name": "",
          "type": "uint256"
        }
      ],
      "stateMutability": "view",
      "type": "function"
    }
  ],
  "bytecode": "0x60806040526000600a556658d15e17628000600b553480156200002157600080fd5b50604080518082018252601081526f4c6f7665436861696e20546f6b656e7360801b6020808301918252835180850190945260048452634c43484160e01b9084015281519192916200007691600091620000a7565b5080516200008c906001906020840190620000a7565b5050600780546001600160a01b03191633179055506200018a565b828054620000b5906200014d565b90600052602060002090601f016020900481019282620000d9576000855562000124565b82601f10620000f457805160ff191683800117855562000124565b8280016001018555821562000124579182015b828111156200012457825182559160200191906001019062000107565b506200013292915062000136565b5090565b5b8082111562000132576000815560010162000137565b600181811c908216806200016257607f821691505b602082108114156200018457634e487b7160e01b600052602260045260246000fd5b50919050565b615be5806200019a6000396000f3fe60806040526004361061019f5760003560e01c806301ffc9a7146101a457806306fdde03146101d957806307973ccf146101fb578063081812fc1461021f578063095ea7b3146102575780630e50cee5146102795780630f08efe0146102a957806312506f4d146102cb57806312e85585146102f85780631fbe552e1461030d578063202e37401461032f578063223668441461034457806323b872dd1461035957806342842e0e1461037957806345f8fa801461039957806356a1dc7e146103ae5780635b473724146103ce5780636352211e146103ee5780636aa444871461040e57806370a08231146104405780638865ba66146104605780639537a1a21461048257806395d89b41146104a25780639e0d2da8146104b7578063a22cb465146104ca578063ae677aa3146104ea578063b829b148146104fd578063b88d4fde14610530578063be9af53614610550578063c337431514610563578063c6365c4c14610585578063c87b56dd146105a5578063d1d8a068146105c5578063e219fc75146105d8578063e985e9c5146105eb578063f179573f1461060b575b600080fd5b3480156101b057600080fd5b506101c46101bf366004614b17565b610638565b60405190151581526020015b60405180910390f35b3480156101e557600080fd5b506101ee610663565b6040516101d09190614b8c565b34801561020757600080fd5b50610211600a5481565b6040519081526020016101d0565b34801561022b57600080fd5b5061023f61023a366004614b9f565b6106f5565b6040516001600160a01b0390911681526020016101d0565b34801561026357600080fd5b50610277610272366004614be1565b61071c565b005b34801561028557600080fd5b506101c4610294366004614c0b565b600f6020526000908152604090205460ff1681565b3480156102b557600080fd5b506102be610837565b6040516101d09190614c26565b3480156102d757600080fd5b506102eb6102e6366004614b9f565b610b6c565b6040516101d09190614dca565b34801561030457600080fd5b50600b54610211565b34801561031957600080fd5b50610322610f11565b6040516101d09190614e2c565b34801561033b57600080fd5b506102be6112ca565b34801561035057600080fd5b506101c461163d565b34801561036557600080fd5b50610277610374366004614f02565b611666565b34801561038557600080fd5b50610277610394366004614f02565b611697565b3480156103a557600080fd5b506102be6116b2565b3480156103ba57600080fd5b506102776103c9366004614fe9565b611a25565b3480156103da57600080fd5b506102776103e9366004615095565b611bcd565b3480156103fa57600080fd5b5061023f610409366004614b9f565b611ddd565b34801561041a57600080fd5b5061042e610429366004614be1565b611e11565b6040516101d0969594939291906150d9565b34801561044c57600080fd5b5061021161045b366004614c0b565b612181565b34801561046c57600080fd5b50610475612207565b6040516101d091906151f8565b34801561048e57600080fd5b5061027761049d36600461520b565b6125c6565b3480156104ae57600080fd5b506101ee61286d565b6102116104c53660046152c9565b61287c565b3480156104d657600080fd5b506102776104e536600461537f565b6128c4565b6102776104f8366004614b9f565b6128d3565b34801561050957600080fd5b5061051d610518366004614be1565b61294b565b6040516101d097969594939291906153bb565b34801561053c57600080fd5b5061027761054b366004615433565b612bba565b61027761055e366004614b9f565b612bf2565b34801561056f57600080fd5b50610578612d57565b6040516101d091906154a2565b34801561059157600080fd5b506102776105a03660046154f7565b6131c2565b3480156105b157600080fd5b506101ee6105c0366004614b9f565b6135ca565b6102776105d3366004614b9f565b6136db565b6102776105e636600461558d565b613844565b3480156105f757600080fd5b506101c46106063660046155af565b61393c565b34801561061757600080fd5b5061062b610626366004614b9f565b61396a565b6040516101d091906155e2565b60006001600160e01b03198216632483248360e11b148061065d575061065d82613e22565b92915050565b6060600080546106729061568f565b80601f016020809104026020016040519081016040528092919081815260200182805461069e9061568f565b80156106eb5780601f106106c0576101008083540402835291602001916106eb565b820191906000526020600020905b8154815290600101906020018083116106ce57829003601f168201915b5050505050905090565b600061070082613e72565b506000908152600460205260409020546001600160a01b031690565b600061072782611ddd565b9050806001600160a01b0316836001600160a01b0316141561079a5760405162461bcd60e51b815260206004820152602160248201527f4552433732313a20617070726f76616c20746f2063757272656e74206f776e656044820152603960f91b60648201526084015b60405180910390fd5b336001600160a01b03821614806107b657506107b6813361393c565b6108285760405162461bcd60e51b815260206004820152603d60248201527f4552433732313a20617070726f76652063616c6c6572206973206e6f7420746f60448201527f6b656e206f776e6572206f7220617070726f76656420666f7220616c6c0000006064820152608401610791565b6108328383613e9a565b505050565b6060600061084460085490565b9050600061085160095490565b60085461085e91906156e0565b9050600080826001600160401b0381111561087b5761087b614f3e565b6040519080825280602002602001820160405280156108b457816020015b6108a16148a7565b8152602001906001900390816108995790505b50905060005b84811015610b635730600c60006108d28460016156f7565b81526020810191909152604001600020600201546001600160a01b03161415610b515760006109028260016156f7565b6000818152600c60209081526040918290208251610100810184528154815260018201546001600160a01b039081169382019390935260028201549092169282019290925260038201546060820152600482015460ff161515608082015260058201805493945091929091839160a08401919061097e9061568f565b80601f01602080910402602001604051908101604052809291908181526020018280546109aa9061568f565b80156109f75780601f106109cc576101008083540402835291602001916109f7565b820191906000526020600020905b8154815290600101906020018083116109da57829003601f168201915b50505050508152602001600682018054610a109061568f565b80601f0160208091040260200160405190810160405280929190818152602001828054610a3c9061568f565b8015610a895780601f10610a5e57610100808354040283529160200191610a89565b820191906000526020600020905b815481529060010190602001808311610a6c57829003601f168201915b50505050508152602001600782018054610aa29061568f565b80601f0160208091040260200160405190810160405280929190818152602001828054610ace9061568f565b8015610b1b5780601f10610af057610100808354040283529160200191610b1b565b820191906000526020600020905b815481529060010190602001808311610afe57829003601f168201915b505050505081525050848681518110610b3657610b3661570f565b6020908102919091010152610b4c6001866156f7565b945050505b80610b5b81615725565b9150506108ba565b50949350505050565b600081815260136020908152604080832033845260118352818420858552835281842054845290915281206001015460609180826001600160401b03811115610bb757610bb7614f3e565b604051908082528060200260200182016040528015610bf057816020015b610bdd614900565b815260200190600190039081610bd55790505b50905060005b83811015610b63576000610c0b8260016156f7565b90506000601360008981526020019081526020016000206000838152602001908152602001600020905080604051806101400160405290816000820154815260200160018201548152602001600282018054610c669061568f565b80601f0160208091040260200160405190810160405280929190818152602001828054610c929061568f565b8015610cdf5780601f10610cb457610100808354040283529160200191610cdf565b820191906000526020600020905b815481529060010190602001808311610cc257829003601f168201915b5050505050815260200160038201548152602001600482018054610d029061568f565b80601f0160208091040260200160405190810160405280929190818152602001828054610d2e9061568f565b8015610d7b5780601f10610d5057610100808354040283529160200191610d7b565b820191906000526020600020905b815481529060010190602001808311610d5e57829003601f168201915b50505050508152602001600582018054610d949061568f565b80601f0160208091040260200160405190810160405280929190818152602001828054610dc09061568f565b8015610e0d5780601f10610de257610100808354040283529160200191610e0d565b820191906000526020600020905b815481529060010190602001808311610df057829003601f168201915b5050505050815260200160068201548152602001600782018054610e309061568f565b80601f0160208091040260200160405190810160405280929190818152602001828054610e5c9061568f565b8015610ea95780601f10610e7e57610100808354040283529160200191610ea9565b820191906000526020600020905b815481529060010190602001808311610e8c57829003601f168201915b5050509183525050600882015460208201526009909101546001600160a01b03166040909101528451859087908110610ee457610ee461570f565b6020908102919091010152610efa6001866156f7565b945050508080610f0990615725565b915050610bf6565b336000908152600d602090815260408083206012835281842054845290915281206005015460609180826001600160401b03811115610f5257610f52614f3e565b604051908082528060200260200182016040528015610fcc57816020015b610fb96040518060e0016040528060608152602001606081526020016000815260200160608152602001606081526020016000815260200160006001600160a01b031681525090565b815260200190600190039081610f705790505b50905060005b838110156112c2576000610fe78260016156f7565b336000908152600d6020908152604080832084845290915290819020815160e081019092528054929350918290829082906110219061568f565b80601f016020809104026020016040519081016040528092919081815260200182805461104d9061568f565b801561109a5780601f1061106f5761010080835404028352916020019161109a565b820191906000526020600020905b81548152906001019060200180831161107d57829003601f168201915b505050505081526020016001820180546110b39061568f565b80601f01602080910402602001604051908101604052809291908181526020018280546110df9061568f565b801561112c5780601f106111015761010080835404028352916020019161112c565b820191906000526020600020905b81548152906001019060200180831161110f57829003601f168201915b505050505081526020016002820154815260200160038201805461114f9061568f565b80601f016020809104026020016040519081016040528092919081815260200182805461117b9061568f565b80156111c85780601f1061119d576101008083540402835291602001916111c8565b820191906000526020600020905b8154815290600101906020018083116111ab57829003601f168201915b505050505081526020016004820180546111e19061568f565b80601f016020809104026020016040519081016040528092919081815260200182805461120d9061568f565b801561125a5780601f1061122f5761010080835404028352916020019161125a565b820191906000526020600020905b81548152906001019060200180831161123d57829003601f168201915b5050509183525050600582015460208201526006909101546001600160a01b031660409091015284518590879081106112955761129561570f565b60209081029190910101526112ab6001866156f7565b9450505080806112ba90615725565b915050610fd2565b509392505050565b606060006112d760085490565b905060008060005b8381101561133a5733600c60006112f78460016156f7565b81526020810191909152604001600020600201546001600160a01b03161415611328576113256001846156f7565b92505b8061133281615725565b9150506112df565b506000826001600160401b0381111561135557611355614f3e565b60405190808252806020026020018201604052801561138e57816020015b61137b6148a7565b8152602001906001900390816113735790505b50905060005b84811015610b635733600c60006113ac8460016156f7565b81526020810191909152604001600020600201546001600160a01b0316141561162b5760006113dc8260016156f7565b6000818152600c60209081526040918290208251610100810184528154815260018201546001600160a01b039081169382019390935260028201549092169282019290925260038201546060820152600482015460ff161515608082015260058201805493945091929091839160a0840191906114589061568f565b80601f01602080910402602001604051908101604052809291908181526020018280546114849061568f565b80156114d15780601f106114a6576101008083540402835291602001916114d1565b820191906000526020600020905b8154815290600101906020018083116114b457829003601f168201915b505050505081526020016006820180546114ea9061568f565b80601f01602080910402602001604051908101604052809291908181526020018280546115169061568f565b80156115635780601f1061153857610100808354040283529160200191611563565b820191906000526020600020905b81548152906001019060200180831161154657829003601f168201915b5050505050815260200160078201805461157c9061568f565b80601f01602080910402602001604051908101604052809291908181526020018280546115a89061568f565b80156115f55780601f106115ca576101008083540402835291602001916115f5565b820191906000526020600020905b8154815290600101906020018083116115d857829003601f168201915b5050505050815250508486815181106116105761161061570f565b60209081029190910101526116266001866156f7565b945050505b8061163581615725565b915050611394565b336000908152600f602052604081205460ff161515600114156116605750600190565b50600090565b6116703382613f08565b61168c5760405162461bcd60e51b815260040161079190615740565b610832838383613f66565b61083283838360405180602001604052806000815250612bba565b606060006116bf60085490565b905060008060005b838110156117225733600c60006116df8460016156f7565b81526020810191909152604001600020600101546001600160a01b031614156117105761170d6001846156f7565b92505b8061171a81615725565b9150506116c7565b506000826001600160401b0381111561173d5761173d614f3e565b60405190808252806020026020018201604052801561177657816020015b6117636148a7565b81526020019060019003908161175b5790505b50905060005b84811015610b635733600c60006117948460016156f7565b81526020810191909152604001600020600101546001600160a01b03161415611a135760006117c48260016156f7565b6000818152600c60209081526040918290208251610100810184528154815260018201546001600160a01b039081169382019390935260028201549092169282019290925260038201546060820152600482015460ff161515608082015260058201805493945091929091839160a0840191906118409061568f565b80601f016020809104026020016040519081016040528092919081815260200182805461186c9061568f565b80156118b95780601f1061188e576101008083540402835291602001916118b9565b820191906000526020600020905b81548152906001019060200180831161189c57829003601f168201915b505050505081526020016006820180546118d29061568f565b80601f01602080910402602001604051908101604052809291908181526020018280546118fe9061568f565b801561194b5780601f106119205761010080835404028352916020019161194b565b820191906000526020600020905b81548152906001019060200180831161192e57829003601f168201915b505050505081526020016007820180546119649061568f565b80601f01602080910402602001604051908101604052809291908181526020018280546119909061568f565b80156119dd5780601f106119b2576101008083540402835291602001916119dd565b820191906000526020600020905b8154815290600101906020018083116119c057829003601f168201915b5050505050815250508486815181106119f8576119f861570f565b6020908102919091010152611a0e6001866156f7565b945050505b80611a1d81615725565b91505061177c565b33600090815260126020526040902054611a409060016156f7565b336000908152601260209081526040808320849055600d825280832093835292815291902085519091611a7791839188019061495c565b508351611a8d906001830190602087019061495c565b50336000908152601260209081526040909120546002830181905560058301558351611ac19160038401919086019061495c565b508151611ad7906004830190602085019061495c565b506006810180546001600160a01b031916339081179091556000908152600d60209081526040808320601283528184205484529091529020815482919081908390611b219061568f565b611b2c9291906149e0565b506001820181600101908054611b419061568f565b611b4c9291906149e0565b50600282015481600201556003820181600301908054611b6b9061568f565b611b769291906149e0565b506004820181600401908054611b8b9061568f565b611b969291906149e0565b5060058281015490820155600691820154910180546001600160a01b0319166001600160a01b039092169190911790555050505050565b33600090815260106020526040902054611be89060016156f7565b336000818152601060208181526040808420869055600e82528084208685528252832093909252815260028201839055600182019290925583519091611c3591600384019186019061495c565b50818155600e80820180546001600160a01b03191633908117909155600090815260209182526040808220601084528183205483529092522082815560018083015490820155600280830154908201556003808301805484939283019190611c9c9061568f565b611ca79291906149e0565b50600482018160040160008201548160000155600182015481600101556002820181600201908054611cd89061568f565b611ce39291906149e0565b50600382015481600301556004820181600401908054611d029061568f565b611d0d9291906149e0565b506005820181600501908054611d229061568f565b611d2d9291906149e0565b50600682015481600601556007820181600701908054611d4c9061568f565b611d579291906149e0565b5060088281015490820155600991820154910180546001600160a01b03199081166001600160a01b0393841617909155600e93840154929093018054909316911617905560018101546040517f1ab1e3deaf766b73268be743e461b11f32921eb946d2315530de558762601aba90611dd0908690614b8c565b60405180910390a2505050565b600080611de9836140b8565b90506001600160a01b03811661065d5760405162461bcd60e51b81526004016107919061578d565b600e60205281600052604060002060205280600052604060002060009150915050806000015490806001015490806002015490806003018054611e539061568f565b80601f0160208091040260200160405190810160405280929190818152602001828054611e7f9061568f565b8015611ecc5780601f10611ea157610100808354040283529160200191611ecc565b820191906000526020600020905b815481529060010190602001808311611eaf57829003601f168201915b50505050509080600401604051806101400160405290816000820154815260200160018201548152602001600282018054611f069061568f565b80601f0160208091040260200160405190810160405280929190818152602001828054611f329061568f565b8015611f7f5780601f10611f5457610100808354040283529160200191611f7f565b820191906000526020600020905b815481529060010190602001808311611f6257829003601f168201915b5050505050815260200160038201548152602001600482018054611fa29061568f565b80601f0160208091040260200160405190810160405280929190818152602001828054611fce9061568f565b801561201b5780601f10611ff05761010080835404028352916020019161201b565b820191906000526020600020905b815481529060010190602001808311611ffe57829003601f168201915b505050505081526020016005820180546120349061568f565b80601f01602080910402602001604051908101604052809291908181526020018280546120609061568f565b80156120ad5780601f10612082576101008083540402835291602001916120ad565b820191906000526020600020905b81548152906001019060200180831161209057829003601f168201915b50505050508152602001600682015481526020016007820180546120d09061568f565b80601f01602080910402602001604051908101604052809291908181526020018280546120fc9061568f565b80156121495780601f1061211e57610100808354040283529160200191612149565b820191906000526020600020905b81548152906001019060200180831161212c57829003601f168201915b5050509183525050600882015460208201526009909101546001600160a01b03908116604090920191909152600e9092015490911686565b60006001600160a01b0382166121eb5760405162461bcd60e51b815260206004820152602960248201527f4552433732313a2061646472657373207a65726f206973206e6f7420612076616044820152683634b21037bbb732b960b91b6064820152608401610791565b506001600160a01b031660009081526003602052604090205490565b61220f614a5b565b336000908152601560209081526040918290208251610120810184528154815260018201546001600160a01b031692810192909252600281018054929391929184019161225b9061568f565b80601f01602080910402602001604051908101604052809291908181526020018280546122879061568f565b80156122d45780601f106122a9576101008083540402835291602001916122d4565b820191906000526020600020905b8154815290600101906020018083116122b757829003601f168201915b505050505081526020016003820180546122ed9061568f565b80601f01602080910402602001604051908101604052809291908181526020018280546123199061568f565b80156123665780601f1061233b57610100808354040283529160200191612366565b820191906000526020600020905b81548152906001019060200180831161234957829003601f168201915b5050505050815260200160048201805461237f9061568f565b80601f01602080910402602001604051908101604052809291908181526020018280546123ab9061568f565b80156123f85780601f106123cd576101008083540402835291602001916123f8565b820191906000526020600020905b8154815290600101906020018083116123db57829003601f168201915b505050505081526020016005820180546124119061568f565b80601f016020809104026020016040519081016040528092919081815260200182805461243d9061568f565b801561248a5780601f1061245f5761010080835404028352916020019161248a565b820191906000526020600020905b81548152906001019060200180831161246d57829003601f168201915b505050505081526020016006820180546124a39061568f565b80601f01602080910402602001604051908101604052809291908181526020018280546124cf9061568f565b801561251c5780601f106124f15761010080835404028352916020019161251c565b820191906000526020600020905b8154815290600101906020018083116124ff57829003601f168201915b505050505081526020016007820180546125359061568f565b80601f01602080910402602001604051908101604052809291908181526020018280546125619061568f565b80156125ae5780601f10612583576101008083540402835291602001916125ae565b820191906000526020600020905b81548152906001019060200180831161259157829003601f168201915b50505050508152602001600882015481525050905090565b60008551116125d457600080fd5b60008351116125e257600080fd5b60008251116125f057600080fd5b600084116125fd57600080fd5b3360009081526011602090815260408083208984529091529020546126239060016156f7565b3360009081526011602090815260408083208a8452808352818420859055601383528184208585528352908320848155928a9052815260018201929092558651909161267691600284019189019061495c565b50600381018590558351612693906004830190602087019061495c565b5082516126a9906005830190602086019061495c565b506006810187905581516126c6906007830190602085019061495c565b504260088201556009810180546001600160a01b031916339081179091556000888152601360209081526040808320938352601182528083208b8452825280832054835292905220815481556001808301549082015560028083018054849392830191906127339061568f565b61273e9291906149e0565b5060038201548160030155600482018160040190805461275d9061568f565b6127689291906149e0565b50600582018160050190805461277d9061568f565b6127889291906149e0565b506006820154816006015560078201816007019080546127a79061568f565b6127b29291906149e0565b50600882015481600801556009820160009054906101000a90046001600160a01b03168160090160006101000a8154816001600160a01b0302191690836001600160a01b0316021790555090505080600001547f46255e5a47f8c7a10e17fb87e1d3d448ee6c4f8b4ee53f30d5263acdf2d8c9fd826001015483600201846003015485600401866005018d8860070189600801543360405161285c9998979695949392919061585f565b60405180910390a250505050505050565b6060600180546106729061568f565b600061288c600880546001019055565b600061289760085490565b90506128a333826140d3565b6128ad81886141ce565b6128ba8187878787614291565b9695505050505050565b6128cf33838361444c565b5050565b6007546001600160a01b031633146129465760405162461bcd60e51b815260206004820152603060248201527f4f6e6c79206d61726b6574706c616365206f776e65722063616e20757064617460448201526f32903634b9ba34b73390383934b1b29760811b6064820152608401610791565b600b55565b600d6020908152600092835260408084209091529082529020805481906129719061568f565b80601f016020809104026020016040519081016040528092919081815260200182805461299d9061568f565b80156129ea5780601f106129bf576101008083540402835291602001916129ea565b820191906000526020600020905b8154815290600101906020018083116129cd57829003601f168201915b5050505050908060010180546129ff9061568f565b80601f0160208091040260200160405190810160405280929190818152602001828054612a2b9061568f565b8015612a785780601f10612a4d57610100808354040283529160200191612a78565b820191906000526020600020905b815481529060010190602001808311612a5b57829003601f168201915b505050505090806002015490806003018054612a939061568f565b80601f0160208091040260200160405190810160405280929190818152602001828054612abf9061568f565b8015612b0c5780601f10612ae157610100808354040283529160200191612b0c565b820191906000526020600020905b815481529060010190602001808311612aef57829003601f168201915b505050505090806004018054612b219061568f565b80601f0160208091040260200160405190810160405280929190818152602001828054612b4d9061568f565b8015612b9a5780601f10612b6f57610100808354040283529160200191612b9a565b820191906000526020600020905b815481529060010190602001808311612b7d57829003601f168201915b5050505060058301546006909301549192916001600160a01b0316905087565b612bc43383613f08565b612be05760405162461bcd60e51b815260040161079190615740565b612bec84848484614517565b50505050565b6000818152600c6020526040902060038101546001909101546001600160a01b0316348214612c8b576040805162461bcd60e51b81526020600482015260248101919091527f506c65617365207375626d6974207468652061736b696e67207072696365206960448201527f6e206f7264657220746f20636f6d706c657465207468652070757263686173656064820152608401610791565b6000838152600c602052604090206002810180546001600160a01b0319908116331790915560048201805460ff1916600190811790915590910180549091169055612cda600980546001019055565b612ce5303385613f66565b600754600b546040516001600160a01b039092169181156108fc0291906000818181858888f19350505050158015612d21573d6000803e3d6000fd5b506040516001600160a01b038216903480156108fc02916000818181858888f19350505050158015612bec573d6000803e3d6000fd5b600a54606090600080826001600160401b03811115612d7857612d78614f3e565b604051908082528060200260200182016040528015612db157816020015b612d9e614a5b565b815260200190600190039081612d965790505b50905060005b838110156112c2576000612dcc8260016156f7565b6000818152601460209081526040918290208251610120810184528154815260018201546001600160a01b0316928101929092526002810180549495509093919284929084019190612e1d9061568f565b80601f0160208091040260200160405190810160405280929190818152602001828054612e499061568f565b8015612e965780601f10612e6b57610100808354040283529160200191612e96565b820191906000526020600020905b815481529060010190602001808311612e7957829003601f168201915b50505050508152602001600382018054612eaf9061568f565b80601f0160208091040260200160405190810160405280929190818152602001828054612edb9061568f565b8015612f285780601f10612efd57610100808354040283529160200191612f28565b820191906000526020600020905b815481529060010190602001808311612f0b57829003601f168201915b50505050508152602001600482018054612f419061568f565b80601f0160208091040260200160405190810160405280929190818152602001828054612f6d9061568f565b8015612fba5780601f10612f8f57610100808354040283529160200191612fba565b820191906000526020600020905b815481529060010190602001808311612f9d57829003601f168201915b50505050508152602001600582018054612fd39061568f565b80601f0160208091040260200160405190810160405280929190818152602001828054612fff9061568f565b801561304c5780601f106130215761010080835404028352916020019161304c565b820191906000526020600020905b81548152906001019060200180831161302f57829003601f168201915b505050505081526020016006820180546130659061568f565b80601f01602080910402602001604051908101604052809291908181526020018280546130919061568f565b80156130de5780601f106130b3576101008083540402835291602001916130de565b820191906000526020600020905b8154815290600101906020018083116130c157829003601f168201915b505050505081526020016007820180546130f79061568f565b80601f01602080910402602001604051908101604052809291908181526020018280546131239061568f565b80156131705780601f1061314557610100808354040283529160200191613170565b820191906000526020600020905b81548152906001019060200180831161315357829003601f168201915b505050505081526020016008820154815250508486815181106131955761319561570f565b60209081029190910101526131ab6001866156f7565b9450505080806131ba90615725565b915050612db7565b336000908152600f602052604090205460ff166135c257600a80549060006131e983615725565b9091555050600a5460008181526014602090815260408083203380855260158452919093209383556001830180546001600160a01b0319169091179055885191929161323d916002850191908b019061495c565b50865161325390600384019060208a019061495c565b508551613269906004840190602089019061495c565b50845161327f906005840190602088019061495c565b508351613295906006840190602087019061495c565b5082516132ab906007840190602086019061495c565b50600060088301819055338152600f60209081526040909120805460ff19166001179055600a54825588516132e8916002840191908b019061495c565b5086516132fe90600383019060208a019061495c565b508551613314906004830190602089019061495c565b50845161332a906005830190602088019061495c565b508351613340906006830190602087019061495c565b508251613356906007830190602086019061495c565b5060018181018054336001600160a01b031991821681178355600090815260156020526040902084548155915492820180546001600160a01b03909416939091169290921790915560028083018054849392830191906133b59061568f565b6133c09291906149e0565b5060038201816003019080546133d59061568f565b6133e09291906149e0565b5060048201816004019080546133f59061568f565b6134009291906149e0565b5060058201816005019080546134159061568f565b6134209291906149e0565b5060068201816006019080546134359061568f565b6134409291906149e0565b5060078201816007019080546134559061568f565b6134609291906149e0565b50600891820154910155600a5460009081526014602052604090208254815560018084015490820180546001600160a01b0319166001600160a01b0390921691909117905560028084018054859392830191906134bc9061568f565b6134c79291906149e0565b5060038201816003019080546134dc9061568f565b6134e79291906149e0565b5060048201816004019080546134fc9061568f565b6135079291906149e0565b50600582018160050190805461351c9061568f565b6135279291906149e0565b50600682018160060190805461353c9061568f565b6135479291906149e0565b50600782018160070190805461355c9061568f565b6135679291906149e0565b50600891820154908201558254908301546040517f89f1c074f6874cb060b9a3b0b1696e9399f45c7a3d370d3ea63fa76bf1f4e5f3926135b792909133918d918d918d918d918d918d91906158e9565b60405180910390a150505b505050505050565b60606135d582613e72565b600082815260066020526040812080546135ee9061568f565b80601f016020809104026020016040519081016040528092919081815260200182805461361a9061568f565b80156136675780601f1061363c57610100808354040283529160200191613667565b820191906000526020600020905b81548152906001019060200180831161364a57829003601f168201915b50505050509050600061368560408051602081019091526000815290565b9050805160001415613698575092915050565b8151156136ca5780826040516020016136b2929190615990565b60405160208183030381529060405292505050919050565b6136d38461454a565b949350505050565b6000818152601460205260408082206001810154915190926001600160a01b03909216913480156108fc02929091818181858888f19350505050158015613726573d6000803e3d6000fd5b5034816008015461373791906156f7565b600882015560008281526014602052604090208154815560018083015490820180546001600160a01b0319166001600160a01b03909216919091179055600280830180548493928301919061378b9061568f565b6137969291906149e0565b5060038201816003019080546137ab9061568f565b6137b69291906149e0565b5060048201816004019080546137cb9061568f565b6137d69291906149e0565b5060058201816005019080546137eb9061568f565b6137f69291906149e0565b50600682018160060190805461380b9061568f565b6138169291906149e0565b50600782018160070190805461382b9061568f565b6138369291906149e0565b506008918201549101555050565b6000828152600c60205260409020600201546001600160a01b031633146138c05760405162461bcd60e51b815260206004820152602a60248201527f4f6e6c79206974656d206f776e65722063616e20706572666f726d20746869736044820152691037b832b930ba34b7b760b11b6064820152608401610791565b600b5434146138e15760405162461bcd60e51b8152600401610791906159bf565b6000828152600c6020526040902060048101805460ff19169055600381018290556001810180546001600160a01b03199081163317909155600290910180549091163017905561393160096145be565b6128cf333084613f66565b6001600160a01b03918216600090815260056020908152604080832093909416825291909152205460ff1690565b336000908152600e602090815260408083206010835281842054845290915281206001015460609180826001600160401b038111156139ab576139ab614f3e565b6040519080825280602002602001820160405280156139e457816020015b6139d1614ab0565b8152602001906001900390816139c95790505b50905060005b83811015610b6357336000908152600e602052604081208791613a0e8460016156f7565b8152602001908152602001600020600001541415613e10576000613a338260016156f7565b90506000600e6000336001600160a01b03166001600160a01b0316815260200190815260200160002060008381526020019081526020016000209050806040518060c0016040529081600082015481526020016001820154815260200160028201548152602001600382018054613aa99061568f565b80601f0160208091040260200160405190810160405280929190818152602001828054613ad59061568f565b8015613b225780601f10613af757610100808354040283529160200191613b22565b820191906000526020600020905b815481529060010190602001808311613b0557829003601f168201915b5050505050815260200160048201604051806101400160405290816000820154815260200160018201548152602001600282018054613b609061568f565b80601f0160208091040260200160405190810160405280929190818152602001828054613b8c9061568f565b8015613bd95780601f10613bae57610100808354040283529160200191613bd9565b820191906000526020600020905b815481529060010190602001808311613bbc57829003601f168201915b5050505050815260200160038201548152602001600482018054613bfc9061568f565b80601f0160208091040260200160405190810160405280929190818152602001828054613c289061568f565b8015613c755780601f10613c4a57610100808354040283529160200191613c75565b820191906000526020600020905b815481529060010190602001808311613c5857829003601f168201915b50505050508152602001600582018054613c8e9061568f565b80601f0160208091040260200160405190810160405280929190818152602001828054613cba9061568f565b8015613d075780601f10613cdc57610100808354040283529160200191613d07565b820191906000526020600020905b815481529060010190602001808311613cea57829003601f168201915b5050505050815260200160068201548152602001600782018054613d2a9061568f565b80601f0160208091040260200160405190810160405280929190818152602001828054613d569061568f565b8015613da35780601f10613d7857610100808354040283529160200191613da3565b820191906000526020600020905b815481529060010190602001808311613d8657829003601f168201915b505050918352505060088201546020808301919091526009909201546001600160a01b03908116604090920191909152918352600e9390930154169101528451859087908110613df557613df561570f565b6020908102919091010152613e0b6001866156f7565b945050505b80613e1a81615725565b9150506139ea565b60006001600160e01b031982166380ac58cd60e01b1480613e5357506001600160e01b03198216635b5e139f60e01b145b8061065d57506301ffc9a760e01b6001600160e01b031983161461065d565b613e7b81614613565b613e975760405162461bcd60e51b81526004016107919061578d565b50565b600081815260046020526040902080546001600160a01b0319166001600160a01b0384169081179091558190613ecf82611ddd565b6001600160a01b03167f8c5be1e5ebec7d5bd14f71427d1e84f3dd0314c0f7b2291e5b200ac8c7c3b92560405160405180910390a45050565b600080613f1483611ddd565b9050806001600160a01b0316846001600160a01b03161480613f3b5750613f3b818561393c565b806136d35750836001600160a01b0316613f54846106f5565b6001600160a01b031614949350505050565b826001600160a01b0316613f7982611ddd565b6001600160a01b031614613f9f5760405162461bcd60e51b815260040161079190615a03565b6001600160a01b0382166140015760405162461bcd60e51b8152602060048201526024808201527f4552433732313a207472616e7366657220746f20746865207a65726f206164646044820152637265737360e01b6064820152608401610791565b826001600160a01b031661401482611ddd565b6001600160a01b03161461403a5760405162461bcd60e51b815260040161079190615a03565b600081815260046020908152604080832080546001600160a01b03199081169091556001600160a01b038781168086526003855283862080546000190190559087168086528386208054600101905586865260029094528285208054909216841790915590518493600080516020615b9083398151915291a4505050565b6000908152600260205260409020546001600160a01b031690565b6001600160a01b0382166141295760405162461bcd60e51b815260206004820181905260248201527f4552433732313a206d696e7420746f20746865207a65726f20616464726573736044820152606401610791565b61413281614613565b1561414f5760405162461bcd60e51b815260040161079190615a48565b61415881614613565b156141755760405162461bcd60e51b815260040161079190615a48565b6001600160a01b038216600081815260036020908152604080832080546001019055848352600290915280822080546001600160a01b031916841790555183929190600080516020615b90833981519152908290a45050565b6141d782614613565b61423a5760405162461bcd60e51b815260206004820152602e60248201527f45524337323155524953746f726167653a2055524920736574206f66206e6f6e60448201526d32bc34b9ba32b73a103a37b5b2b760911b6064820152608401610791565b600082815260066020908152604090912082516142599284019061495c565b506040518281527ff8e1a15aba9398e019f0b49df1a4fde98ee17ae345cb5f6b5e2c27f5033e8ce79060200160405180910390a15050565b600084116142e05760405162461bcd60e51b815260206004820152601c60248201527b5072696365206d757374206265206174206c6561737420312077656960201b6044820152606401610791565b600b5434146143015760405162461bcd60e51b8152600401610791906159bf565b6040805161010081018252868152336020808301918252308385019081526060840189815260006080860181815260a087018b815260c088018b905260e088018a90528d8352600c8652979091208651815594516001860180546001600160a01b03199081166001600160a01b039384161790915593516002870180549095169116179092555160038401555160048301805460ff191691151591909117905592518051929391926143b9926005850192019061495c565b5060c082015180516143d591600684019160209091019061495c565b5060e082015180516143f191600784019160209091019061495c565b50905050614400333087613f66565b847f92d5fdcbed7ff2adc67c1a3e81b1f62968651ced121e6ea00b2a9edbf1882d60333087600088888860405161443d9796959493929190615a7e565b60405180910390a25050505050565b816001600160a01b0316836001600160a01b031614156144aa5760405162461bcd60e51b815260206004820152601960248201527822a9219b99189d1030b8383937bb32903a379031b0b63632b960391b6044820152606401610791565b6001600160a01b03838116600081815260056020908152604080832094871680845294825291829020805460ff191686151590811790915591519182527f17307eab39ab6107e8899845ad3d59bd9653f200f220920489ca2b5937696c31910160405180910390a3505050565b614522848484613f66565b61452e84848484614630565b612bec5760405162461bcd60e51b815260040161079190615aed565b606061455582613e72565b600061456c60408051602081019091526000815290565b9050600081511161458c57604051806020016040528060008152506145b7565b806145968461473d565b6040516020016145a7929190615990565b6040516020818303038152906040525b9392505050565b80548061460b5760405162461bcd60e51b815260206004820152601b60248201527a436f756e7465723a2064656372656d656e74206f766572666c6f7760281b6044820152606401610791565b600019019055565b60008061461f836140b8565b6001600160a01b0316141592915050565b60006001600160a01b0384163b1561473257604051630a85bd0160e11b81526001600160a01b0385169063150b7a0290614674903390899088908890600401615b3f565b602060405180830381600087803b15801561468e57600080fd5b505af19250505080156146be575060408051601f3d908101601f191682019092526146bb91810190615b72565b60015b614718573d8080156146ec576040519150601f19603f3d011682016040523d82523d6000602084013e6146f1565b606091505b5080516147105760405162461bcd60e51b815260040161079190615aed565b805181602001fd5b6001600160e01b031916630a85bd0160e11b1490506136d3565b506001949350505050565b6060600061474a836147d1565b60010190506000816001600160401b0381111561476957614769614f3e565b6040519080825280601f01601f191660200182016040528015614793576020820181803683370190505b5090508181016020015b600019016f181899199a1a9b1b9c1cb0b131b232b360811b600a86061a8153600a85049450846147cc576112c2565b61479d565b60008072184f03e93ff9f4daa797ed6e38ed64bf6a1f0160401b83106148105772184f03e93ff9f4daa797ed6e38ed64bf6a1f0160401b830492506040015b6904ee2d6d415b85acef8160201b831061483a576904ee2d6d415b85acef8160201b830492506020015b662386f26fc10000831061485857662386f26fc10000830492506010015b6305f5e1008310614870576305f5e100830492506008015b612710831061488457612710830492506004015b60648310614896576064830492506002015b600a831061065d5760010192915050565b6040518061010001604052806000815260200160006001600160a01b0316815260200160006001600160a01b03168152602001600081526020016000151581526020016060815260200160608152602001606081525090565b60405180610140016040528060008152602001600081526020016060815260200160008152602001606081526020016060815260200160008152602001606081526020016000815260200160006001600160a01b031681525090565b8280546149689061568f565b90600052602060002090601f01602090048101928261498a57600085556149d0565b82601f106149a357805160ff19168380011785556149d0565b828001600101855582156149d0579182015b828111156149d05782518255916020019190600101906149b5565b506149dc929150614aec565b5090565b8280546149ec9061568f565b90600052602060002090601f016020900481019282614a0e57600085556149d0565b82601f10614a1f57805485556149d0565b828001600101855582156149d057600052602060002091601f016020900482015b828111156149d0578254825591600101919060010190614a40565b6040518061012001604052806000815260200160006001600160a01b03168152602001606081526020016060815260200160608152602001606081526020016060815260200160608152602001600081525090565b6040518060c0016040528060008152602001600081526020016000815260200160608152602001614adf614900565b8152600060209091015290565b5b808211156149dc5760008155600101614aed565b6001600160e01b031981168114613e9757600080fd5b600060208284031215614b2957600080fd5b81356145b781614b01565b60005b83811015614b4f578181015183820152602001614b37565b83811115612bec5750506000910152565b60008151808452614b78816020860160208601614b34565b601f01601f19169290920160200192915050565b6020815260006145b76020830184614b60565b600060208284031215614bb157600080fd5b5035919050565b6001600160a01b03169052565b80356001600160a01b0381168114614bdc57600080fd5b919050565b60008060408385031215614bf457600080fd5b614bfd83614bc5565b946020939093013593505050565b600060208284031215614c1d57600080fd5b6145b782614bc5565b60006020808301818452808551808352604092508286019150828160051b87010184880160005b83811015614d0457603f1989840301855281516101008151855288820151614c778a870182614bb8565b5087820151614c8889870182614bb8565b506060828101519086015260808083015115159086015260a080830151818701839052614cb783880182614b60565b9250505060c08083015186830382880152614cd28382614b60565b9250505060e08083015192508582038187015250614cf08183614b60565b968901969450505090860190600101614c4d565b509098975050505050505050565b600061014082518452602083015160208501526040830151816040860152614d3c82860182614b60565b9150506060830151606085015260808301518482036080860152614d608282614b60565b91505060a083015184820360a0860152614d7a8282614b60565b91505060c083015160c085015260e083015184820360e0860152614d9e8282614b60565b91505061010080840151818601525061012080840151614dc082870182614bb8565b5090949350505050565b6000602080830181845280855180835260408601915060408160051b870101925083870160005b82811015614e1f57603f19888603018452614e0d858351614d12565b94509285019290850190600101614df1565b5092979650505050505050565b60006020808301818452808551808352604092508286019150828160051b87010184880160005b83811015614d0457603f19898403018552815160e08151818652614e7982870182614b60565b915050888201518582038a870152614e918282614b60565b915050878201518886015260608083015186830382880152614eb38382614b60565b9250505060808083015186830382880152614ece8382614b60565b60a0858101519089015260c0948501516001600160a01b031694909701939093525050509386019390860190600101614e53565b600080600060608486031215614f1757600080fd5b614f2084614bc5565b9250614f2e60208501614bc5565b9150604084013590509250925092565b634e487b7160e01b600052604160045260246000fd5b60006001600160401b0380841115614f6e57614f6e614f3e565b604051601f8501601f19908116603f01168101908282118183101715614f9657614f96614f3e565b81604052809350858152868686011115614faf57600080fd5b858560208301376000602087830101525050509392505050565b600082601f830112614fda57600080fd5b6145b783833560208501614f54565b60008060008060808587031215614fff57600080fd5b84356001600160401b038082111561501657600080fd5b61502288838901614fc9565b9550602087013591508082111561503857600080fd5b61504488838901614fc9565b9450604087013591508082111561505a57600080fd5b61506688838901614fc9565b9350606087013591508082111561507c57600080fd5b5061508987828801614fc9565b91505092959194509250565b600080604083850312156150a857600080fd5b82356001600160401b038111156150be57600080fd5b6150ca85828601614fc9565b95602094909401359450505050565b86815285602082015284604082015260c0606082015260006150fe60c0830186614b60565b82810360808401526151108186614d12565b91505060018060a01b03831660a0830152979650505050505050565b60006101208251845260208301516151476020860182614bb8565b50604083015181604086015261515f82860182614b60565b915050606083015184820360608601526151798282614b60565b915050608083015184820360808601526151938282614b60565b91505060a083015184820360a08601526151ad8282614b60565b91505060c083015184820360c08601526151c78282614b60565b91505060e083015184820360e08601526151e18282614b60565b610100948501519590940194909452509092915050565b6020815260006145b7602083018461512c565b60008060008060008060c0878903121561522457600080fd5b8635955060208701356001600160401b038082111561524257600080fd5b61524e8a838b01614fc9565b965060408901359550606089013591508082111561526b57600080fd5b6152778a838b01614fc9565b9450608089013591508082111561528d57600080fd5b6152998a838b01614fc9565b935060a08901359150808211156152af57600080fd5b506152bc89828a01614fc9565b9150509295509295509295565b600080600080600060a086880312156152e157600080fd5b85356001600160401b03808211156152f857600080fd5b61530489838a01614fc9565b965060208801359550604088013591508082111561532157600080fd5b61532d89838a01614fc9565b9450606088013591508082111561534357600080fd5b61534f89838a01614fc9565b9350608088013591508082111561536557600080fd5b5061537288828901614fc9565b9150509295509295909350565b6000806040838503121561539257600080fd5b61539b83614bc5565b9150602083013580151581146153b057600080fd5b809150509250929050565b60e0815260006153ce60e083018a614b60565b82810360208401526153e0818a614b60565b905087604084015282810360608401526153fa8188614b60565b9050828103608084015261540e8187614b60565b60a084019590955250506001600160a01b039190911660c09091015295945050505050565b6000806000806080858703121561544957600080fd5b61545285614bc5565b935061546060208601614bc5565b92506040850135915060608501356001600160401b0381111561548257600080fd5b8501601f8101871361549357600080fd5b61508987823560208401614f54565b6000602080830181845280855180835260408601915060408160051b870101925083870160005b82811015614e1f57603f198886030184526154e585835161512c565b945092850192908501906001016154c9565b60008060008060008060c0878903121561551057600080fd5b86356001600160401b038082111561552757600080fd5b6155338a838b01614fc9565b9750602089013591508082111561554957600080fd5b6155558a838b01614fc9565b9650604089013591508082111561556b57600080fd5b6155778a838b01614fc9565b9550606089013591508082111561526b57600080fd5b600080604083850312156155a057600080fd5b50508035926020909101359150565b600080604083850312156155c257600080fd5b6155cb83614bc5565b91506155d960208401614bc5565b90509250929050565b60006020808301818452808551808352604092508286019150828160051b87010184880160005b83811015614d0457603f19898403018552815160c08151855288820151898601528782015188860152606080830151828288015261564983880182614b60565b92505050608080830151868303828801526156648382614d12565b60a0948501516001600160a01b03169790940196909652505094870194925090860190600101615609565b600181811c908216806156a357607f821691505b602082108114156156c457634e487b7160e01b600052602260045260246000fd5b50919050565b634e487b7160e01b600052601160045260246000fd5b6000828210156156f2576156f26156ca565b500390565b6000821982111561570a5761570a6156ca565b500190565b634e487b7160e01b600052603260045260246000fd5b6000600019821415615739576157396156ca565b5060010190565b6020808252602d908201527f4552433732313a2063616c6c6572206973206e6f7420746f6b656e206f776e6560408201526c1c881bdc88185c1c1c9bdd9959609a1b606082015260800190565b602080825260189082015277115490cdcc8c4e881a5b9d985b1a59081d1bdad95b88125160421b604082015260600190565b8054600090600181811c90808316806157d957607f831692505b60208084108214156157fb57634e487b7160e01b600052602260045260246000fd5b83885260208801828015615816576001811461582757615852565b60ff19871682528282019750615852565b60008981526020902060005b8781101561584c57815484820152908601908401615833565b83019850505b5050505050505092915050565b60006101208b83528060208401526158798184018c6157bf565b90508960408401528281036060840152615893818a6157bf565b905082810360808401526158a781896157bf565b90508660a084015282810360c08401526158c181876157bf565b60e084019590955250506001600160a01b039190911661010090910152979650505050505050565b8981526001600160a01b0389166020820152610120604082018190526000906159148382018b614b60565b90508281036060840152615928818a614b60565b9050828103608084015261593c8189614b60565b905082810360a08401526159508188614b60565b905082810360c08401526159648187614b60565b905082810360e08401526159788186614b60565b915050826101008301529a9950505050505050505050565b600083516159a2818460208801614b34565b8351908301906159b6818360208801614b34565b01949350505050565b60208082526024908201527f5072696365206d75737420626520657175616c20746f206c697374696e6720706040820152637269636560e01b606082015260800190565b60208082526025908201527f4552433732313a207472616e736665722066726f6d20696e636f72726563742060408201526437bbb732b960d91b606082015260800190565b6020808252601c908201527b115490cdcc8c4e881d1bdad95b88185b1c9958591e481b5a5b9d195960221b604082015260600190565b6001600160a01b0388811682528716602082015260408101869052841515606082015260e060808201819052600090615ab990830186614b60565b82810360a0840152615acb8186614b60565b905082810360c0840152615adf8185614b60565b9a9950505050505050505050565b60208082526032908201527f4552433732313a207472616e7366657220746f206e6f6e20455243373231526560408201527131b2b4bb32b91034b6b83632b6b2b73a32b960711b606082015260800190565b6001600160a01b03858116825284166020820152604081018390526080606082018190526000906128ba90830184614b60565b600060208284031215615b8457600080fd5b81516145b781614b0156feddf252ad1be2c89b69c2b068fc378daa952ba7f163c4a11628f55a4df523b3efa26469706673582212204162deb5c0e5b422b81149e52a3066fb638e0afd1279b522f4649daf8fe1549164736f6c63430008090033",
  "linkReferences": {},
  "deployedLinkReferences": {}
}