{
  "_format": "hh-sol-artifact-1",
  "contractName": "LoveChain",
  "sourceName": "contracts/Dstore.sol",
  "abi": [
    {
      "inputs": [],
      "stateMutability": "nonpayable",
      "type": "constructor"
    },
    {
      "anonymous": false,
      "inputs": [
        {
          "indexed": true,
          "internalType": "address",
          "name": "owner",
          "type": "address"
        },
        {
          "indexed": true,
          "internalType": "address",
          "name": "approved",
          "type": "address"
        },
        {
          "indexed": true,
          "internalType": "uint256",
          "name": "tokenId",
          "type": "uint256"
        }
      ],
      "name": "Approval",
      "type": "event"
    },
    {
      "anonymous": false,
      "inputs": [
        {
          "indexed": true,
          "internalType": "address",
          "name": "owner",
          "type": "address"
        },
        {
          "indexed": true,
          "internalType": "address",
          "name": "operator",
          "type": "address"
        },
        {
          "indexed": false,
          "internalType": "bool",
          "name": "approved",
          "type": "bool"
        }
      ],
      "name": "ApprovalForAll",
      "type": "event"
    },
    {
      "anonymous": false,
      "inputs": [
        {
          "indexed": false,
          "internalType": "uint256",
          "name": "_fromTokenId",
          "type": "uint256"
        },
        {
          "indexed": false,
          "internalType": "uint256",
          "name": "_toTokenId",
          "type": "uint256"
        }
      ],
      "name": "BatchMetadataUpdate",
      "type": "event"
    },
    {
      "anonymous": false,
      "inputs": [
        {
          "indexed": true,
          "internalType": "uint256",
          "name": "fileId",
          "type": "uint256"
        },
        {
          "indexed": false,
          "internalType": "uint256",
          "name": "fileCount",
          "type": "uint256"
        },
        {
          "indexed": false,
          "internalType": "string",
          "name": "fileHash",
          "type": "string"
        },
        {
          "indexed": false,
          "internalType": "uint256",
          "name": "fileSize",
          "type": "uint256"
        },
        {
          "indexed": false,
          "internalType": "string",
          "name": "fileType",
          "type": "string"
        },
        {
          "indexed": false,
          "internalType": "string",
          "name": "fileName",
          "type": "string"
        },
        {
          "indexed": false,
          "internalType": "uint256",
          "name": "folderId",
          "type": "uint256"
        },
        {
          "indexed": false,
          "internalType": "string",
          "name": "fileDescription",
          "type": "string"
        },
        {
          "indexed": false,
          "internalType": "uint256",
          "name": "uploadTime",
          "type": "uint256"
        },
        {
          "indexed": false,
          "internalType": "address",
          "name": "sender",
          "type": "address"
        }
      ],
      "name": "FileCreated",
      "type": "event"
    },
    {
      "anonymous": false,
      "inputs": [
        {
          "indexed": true,
          "internalType": "uint256",
          "name": "_id",
          "type": "uint256"
        },
        {
          "indexed": false,
          "internalType": "string",
          "name": "foldername",
          "type": "string"
        }
      ],
      "name": "FolderCreated",
      "type": "event"
    },
    {
      "anonymous": false,
      "inputs": [
        {
          "indexed": true,
          "internalType": "uint256",
          "name": "tokenId",
          "type": "uint256"
        },
        {
          "indexed": false,
          "internalType": "address",
          "name": "seller",
          "type": "address"
        },
        {
          "indexed": false,
          "internalType": "address",
          "name": "owner",
          "type": "address"
        },
        {
          "indexed": false,
          "internalType": "uint256",
          "name": "price",
          "type": "uint256"
        },
        {
          "indexed": false,
          "internalType": "bool",
          "name": "sold",
          "type": "bool"
        },
        {
          "indexed": false,
          "internalType": "string",
          "name": "name",
          "type": "string"
        },
        {
          "indexed": false,
          "internalType": "string",
          "name": "description",
          "type": "string"
        },
        {
          "indexed": false,
          "internalType": "string",
          "name": "image",
          "type": "string"
        }
      ],
      "name": "MarketItemCreated",
      "type": "event"
    },
    {
      "anonymous": false,
      "inputs": [
        {
          "indexed": false,
          "internalType": "uint256",
          "name": "_tokenId",
          "type": "uint256"
        }
      ],
      "name": "MetadataUpdate",
      "type": "event"
    },
    {
      "anonymous": false,
      "inputs": [
        {
          "indexed": true,
          "internalType": "address",
          "name": "from",
          "type": "address"
        },
        {
          "indexed": true,
          "internalType": "address",
          "name": "to",
          "type": "address"
        },
        {
          "indexed": true,
          "internalType": "uint256",
          "name": "tokenId",
          "type": "uint256"
        }
      ],
      "name": "Transfer",
      "type": "event"
    },
    {
      "anonymous": false,
      "inputs": [
        {
          "indexed": false,
          "internalType": "uint256",
          "name": "id",
          "type": "uint256"
        },
        {
          "indexed": false,
          "internalType": "address payable",
          "name": "_address",
          "type": "address"
        },
        {
          "indexed": false,
          "internalType": "string",
          "name": "image",
          "type": "string"
        },
        {
          "indexed": false,
          "internalType": "string",
          "name": "profile",
          "type": "string"
        },
        {
          "indexed": false,
          "internalType": "string",
          "name": "gender",
          "type": "string"
        },
        {
          "indexed": false,
          "internalType": "string",
          "name": "year",
          "type": "string"
        },
        {
          "indexed": false,
          "internalType": "string",
          "name": "country",
          "type": "string"
        },
        {
          "indexed": false,
          "internalType": "uint256",
          "name": "balance",
          "type": "uint256"
        }
      ],
      "name": "UserCreated",
      "type": "event"
    },
    {
      "inputs": [
        {
          "internalType": "uint256",
          "name": "_folderId",
          "type": "uint256"
        },
        {
          "internalType": "string",
          "name": "_fileHash",
          "type": "string"
        },
        {
          "internalType": "uint256",
          "name": "_fileSize",
          "type": "uint256"
        },
        {
          "internalType": "string",
          "name": "_fileType",
          "type": "string"
        },
        {
          "internalType": "string",
          "name": "_fileName",
          "type": "string"
        },
        {
          "internalType": "string",
          "name": "_fileDescription",
          "type": "string"
        }
      ],
      "name": "addFiles",
      "outputs": [],
      "stateMutability": "nonpayable",
      "type": "function"
    },
    {
      "inputs": [
        {
          "internalType": "string",
          "name": "_platformName",
          "type": "string"
        },
        {
          "internalType": "string",
          "name": "token",
          "type": "string"
        },
        {
          "internalType": "string",
          "name": "_projectid",
          "type": "string"
        },
        {
          "internalType": "string",
          "name": "_projectsecret",
          "type": "string"
        }
      ],
      "name": "addPlatform",
      "outputs": [],
      "stateMutability": "nonpayable",
      "type": "function"
    },
    {
      "inputs": [
        {
          "internalType": "address",
          "name": "to",
          "type": "address"
        },
        {
          "internalType": "uint256",
          "name": "tokenId",
          "type": "uint256"
        }
      ],
      "name": "approve",
      "outputs": [],
      "stateMutability": "nonpayable",
      "type": "function"
    },
    {
      "inputs": [
        {
          "internalType": "address",
          "name": "owner",
          "type": "address"
        }
      ],
      "name": "balanceOf",
      "outputs": [
        {
          "internalType": "uint256",
          "name": "",
          "type": "uint256"
        }
      ],
      "stateMutability": "view",
      "type": "function"
    },
    {
      "inputs": [
        {
          "internalType": "string",
          "name": "_foldername",
          "type": "string"
        },
        {
          "internalType": "uint256",
          "name": "_platformId",
          "type": "uint256"
        }
      ],
      "name": "createFolder",
      "outputs": [],
      "stateMutability": "nonpayable",
      "type": "function"
    },
    {
      "inputs": [
        {
          "internalType": "uint256",
          "name": "tokenId",
          "type": "uint256"
        }
      ],
      "name": "createMarketSale",
      "outputs": [],
      "stateMutability": "payable",
      "type": "function"
    },
    {
      "inputs": [
        {
          "internalType": "string",
          "name": "_image",
          "type": "string"
        },
        {
          "internalType": "string",
          "name": "_profile",
          "type": "string"
        },
        {
          "internalType": "string",
          "name": "_gender",
          "type": "string"
        },
        {
          "internalType": "string",
          "name": "_year",
          "type": "string"
        },
        {
          "internalType": "string",
          "name": "_country",
          "type": "string"
        }
      ],
      "name": "createProfile",
      "outputs": [],
      "stateMutability": "nonpayable",
      "type": "function"
    },
    {
      "inputs": [
        {
          "internalType": "string",
          "name": "tokenURI",
          "type": "string"
        },
        {
          "internalType": "uint256",
          "name": "price",
          "type": "uint256"
        },
        {
          "internalType": "string",
          "name": "_name",
          "type": "string"
        },
        {
          "internalType": "string",
          "name": "_description",
          "type": "string"
        },
        {
          "internalType": "string",
          "name": "_image",
          "type": "string"
        }
      ],
      "name": "createToken",
      "outputs": [
        {
          "internalType": "uint256",
          "name": "",
          "type": "uint256"
        }
      ],
      "stateMutability": "payable",
      "type": "function"
    },
    {
      "inputs": [],
      "name": "fetchAllUsers",
      "outputs": [
        {
          "components": [
            {
              "internalType": "uint256",
              "name": "id",
              "type": "uint256"
            },
            {
              "internalType": "address payable",
              "name": "_address",
              "type": "address"
            },
            {
              "internalType": "string",
              "name": "image",
              "type": "string"
            },
            {
              "internalType": "string",
              "name": "profile",
              "type": "string"
            },
            {
              "internalType": "string",
              "name": "gender",
              "type": "string"
            },
            {
              "internalType": "string",
              "name": "year",
              "type": "string"
            },
            {
              "internalType": "string",
              "name": "country",
              "type": "string"
            },
            {
              "internalType": "uint256",
              "name": "balance",
              "type": "uint256"
            }
          ],
          "internalType": "struct LoveChain.User[]",
          "name": "",
          "type": "tuple[]"
        }
      ],
      "stateMutability": "view",
      "type": "function"
    },
    {
      "inputs": [],
      "name": "fetchItemsListed",
      "outputs": [
        {
          "components": [
            {
              "internalType": "uint256",
              "name": "tokenId",
              "type": "uint256"
            },
            {
              "internalType": "address payable",
              "name": "seller",
              "type": "address"
            },
            {
              "internalType": "address payable",
              "name": "owner",
              "type": "address"
            },
            {
              "internalType": "uint256",
              "name": "price",
              "type": "uint256"
            },
            {
              "internalType": "bool",
              "name": "sold",
              "type": "bool"
            },
            {
              "internalType": "string",
              "name": "name",
              "type": "string"
            },
            {
              "internalType": "string",
              "name": "description",
              "type": "string"
            },
            {
              "internalType": "string",
              "name": "image",
              "type": "string"
            }
          ],
          "internalType": "struct LoveChain.MarketItem[]",
          "name": "",
          "type": "tuple[]"
        }
      ],
      "stateMutability": "view",
      "type": "function"
    },
    {
      "inputs": [],
      "name": "fetchMarketItems",
      "outputs": [
        {
          "components": [
            {
              "internalType": "uint256",
              "name": "tokenId",
              "type": "uint256"
            },
            {
              "internalType": "address payable",
              "name": "seller",
              "type": "address"
            },
            {
              "internalType": "address payable",
              "name": "owner",
              "type": "address"
            },
            {
              "internalType": "uint256",
              "name": "price",
              "type": "uint256"
            },
            {
              "internalType": "bool",
              "name": "sold",
              "type": "bool"
            },
            {
              "internalType": "string",
              "name": "name",
              "type": "string"
            },
            {
              "internalType": "string",
              "name": "description",
              "type": "string"
            },
            {
              "internalType": "string",
              "name": "image",
              "type": "string"
            }
          ],
          "internalType": "struct LoveChain.MarketItem[]",
          "name": "",
          "type": "tuple[]"
        }
      ],
      "stateMutability": "view",
      "type": "function"
    },
    {
      "inputs": [],
      "name": "fetchMyNFTs",
      "outputs": [
        {
          "components": [
            {
              "internalType": "uint256",
              "name": "tokenId",
              "type": "uint256"
            },
            {
              "internalType": "address payable",
              "name": "seller",
              "type": "address"
            },
            {
              "internalType": "address payable",
              "name": "owner",
              "type": "address"
            },
            {
              "internalType": "uint256",
              "name": "price",
              "type": "uint256"
            },
            {
              "internalType": "bool",
              "name": "sold",
              "type": "bool"
            },
            {
              "internalType": "string",
              "name": "name",
              "type": "string"
            },
            {
              "internalType": "string",
              "name": "description",
              "type": "string"
            },
            {
              "internalType": "string",
              "name": "image",
              "type": "string"
            }
          ],
          "internalType": "struct LoveChain.MarketItem[]",
          "name": "",
          "type": "tuple[]"
        }
      ],
      "stateMutability": "view",
      "type": "function"
    },
    {
      "inputs": [
        {
          "internalType": "address",
          "name": "",
          "type": "address"
        },
        {
          "internalType": "uint256",
          "name": "",
          "type": "uint256"
        }
      ],
      "name": "folder",
      "outputs": [
        {
          "internalType": "uint256",
          "name": "platformId",
          "type": "uint256"
        },
        {
          "internalType": "uint256",
          "name": "folderCount",
          "type": "uint256"
        },
        {
          "internalType": "uint256",
          "name": "id",
          "type": "uint256"
        },
        {
          "internalType": "string",
          "name": "folderName",
          "type": "string"
        },
        {
          "components": [
            {
              "internalType": "uint256",
              "name": "fileId",
              "type": "uint256"
            },
            {
              "internalType": "uint256",
              "name": "fileCount",
              "type": "uint256"
            },
            {
              "internalType": "string",
              "name": "fileHash",
              "type": "string"
            },
            {
              "internalType": "uint256",
              "name": "fileSize",
              "type": "uint256"
            },
            {
              "internalType": "string",
              "name": "fileType",
              "type": "string"
            },
            {
              "internalType": "string",
              "name": "fileName",
              "type": "string"
            },
            {
              "internalType": "uint256",
              "name": "folderId",
              "type": "uint256"
            },
            {
              "internalType": "string",
              "name": "fileDescription",
              "type": "string"
            },
            {
              "internalType": "uint256",
              "name": "uploadTime",
              "type": "uint256"
            },
            {
              "internalType": "address",
              "name": "sender",
              "type": "address"
            }
          ],
          "internalType": "struct LoveChain.File",
          "name": "files",
          "type": "tuple"
        },
        {
          "internalType": "address",
          "name": "owner",
          "type": "address"
        }
      ],
      "stateMutability": "view",
      "type": "function"
    },
    {
      "inputs": [
        {
          "internalType": "uint256",
          "name": "tokenId",
          "type": "uint256"
        }
      ],
      "name": "getApproved",
      "outputs": [
        {
          "internalType": "address",
          "name": "",
          "type": "address"
        }
      ],
      "stateMutability": "view",
      "type": "function"
    },
    {
      "inputs": [
        {
          "internalType": "uint256",
          "name": "_folderId",
          "type": "uint256"
        }
      ],
      "name": "getFiles",
      "outputs": [
        {
          "components": [
            {
              "internalType": "uint256",
              "name": "fileId",
              "type": "uint256"
            },
            {
              "internalType": "uint256",
              "name": "fileCount",
              "type": "uint256"
            },
            {
              "internalType": "string",
              "name": "fileHash",
              "type": "string"
            },
            {
              "internalType": "uint256",
              "name": "fileSize",
              "type": "uint256"
            },
            {
              "internalType": "string",
              "name": "fileType",
              "type": "string"
            },
            {
              "internalType": "string",
              "name": "fileName",
              "type": "string"
            },
            {
              "internalType": "uint256",
              "name": "folderId",
              "type": "uint256"
            },
            {
              "internalType": "string",
              "name": "fileDescription",
              "type": "string"
            },
            {
              "internalType": "uint256",
              "name": "uploadTime",
              "type": "uint256"
            },
            {
              "internalType": "address",
              "name": "sender",
              "type": "address"
            }
          ],
          "internalType": "struct LoveChain.File[]",
          "name": "",
          "type": "tuple[]"
        }
      ],
      "stateMutability": "view",
      "type": "function"
    },
    {
      "inputs": [
        {
          "internalType": "uint256",
          "name": "_platformId",
          "type": "uint256"
        }
      ],
      "name": "getFolders",
      "outputs": [
        {
          "components": [
            {
              "internalType": "uint256",
              "name": "platformId",
              "type": "uint256"
            },
            {
              "internalType": "uint256",
              "name": "folderCount",
              "type": "uint256"
            },
            {
              "internalType": "uint256",
              "name": "id",
              "type": "uint256"
            },
            {
              "internalType": "string",
              "name": "folderName",
              "type": "string"
            },
            {
              "components": [
                {
                  "internalType": "uint256",
                  "name": "fileId",
                  "type": "uint256"
                },
                {
                  "internalType": "uint256",
                  "name": "fileCount",
                  "type": "uint256"
                },
                {
                  "internalType": "string",
                  "name": "fileHash",
                  "type": "string"
                },
                {
                  "internalType": "uint256",
                  "name": "fileSize",
                  "type": "uint256"
                },
                {
                  "internalType": "string",
                  "name": "fileType",
                  "type": "string"
                },
                {
                  "internalType": "string",
                  "name": "fileName",
                  "type": "string"
                },
                {
                  "internalType": "uint256",
                  "name": "folderId",
                  "type": "uint256"
                },
                {
                  "internalType": "string",
                  "name": "fileDescription",
                  "type": "string"
                },
                {
                  "internalType": "uint256",
                  "name": "uploadTime",
                  "type": "uint256"
                },
                {
                  "internalType": "address",
                  "name": "sender",
                  "type": "address"
                }
              ],
              "internalType": "struct LoveChain.File",
              "name": "files",
              "type": "tuple"
            },
            {
              "internalType": "address",
              "name": "owner",
              "type": "address"
            }
          ],
          "internalType": "struct LoveChain.Folder[]",
          "name": "",
          "type": "tuple[]"
        }
      ],
      "stateMutability": "view",
      "type": "function"
    },
    {
      "inputs": [],
      "name": "getListingPrice",
      "outputs": [
        {
          "internalType": "uint256",
          "name": "",
          "type": "uint256"
        }
      ],
      "stateMutability": "view",
      "type": "function"
    },
    {
      "inputs": [],
      "name": "getPlatforms",
      "outputs": [
        {
          "components": [
            {
              "internalType": "string",
              "name": "platformName",
              "type": "string"
            },
            {
              "internalType": "string",
              "name": "token",
              "type": "string"
            },
            {
              "internalType": "uint256",
              "name": "platform_id",
              "type": "uint256"
            },
            {
              "internalType": "string",
              "name": "platformid",
              "type": "string"
            },
            {
              "internalType": "string",
              "name": "platformsecret",
              "type": "string"
            },
            {
              "internalType": "uint256",
              "name": "platformCount",
              "type": "uint256"
            },
            {
              "internalType": "address",
              "name": "user",
              "type": "address"
            }
          ],
          "internalType": "struct LoveChain.Platform[]",
          "name": "",
          "type": "tuple[]"
        }
      ],
      "stateMutability": "view",
      "type": "function"
    },
    {
      "inputs": [],
      "name": "getSingleUser",
      "outputs": [
        {
          "components": [
            {
              "internalType": "uint256",
              "name": "id",
              "type": "uint256"
            },
            {
              "internalType": "address payable",
              "name": "_address",
              "type": "address"
            },
            {
              "internalType": "string",
              "name": "image",
              "type": "string"
            },
            {
              "internalType": "string",
              "name": "profile",
              "type": "string"
            },
            {
              "internalType": "string",
              "name": "gender",
              "type": "string"
            },
            {
              "internalType": "string",
              "name": "year",
              "type": "string"
            },
            {
              "internalType": "string",
              "name": "country",
              "type": "string"
            },
            {
              "internalType": "uint256",
              "name": "balance",
              "type": "uint256"
            }
          ],
          "internalType": "struct LoveChain.User",
          "name": "",
          "type": "tuple"
        }
      ],
      "stateMutability": "view",
      "type": "function"
    },
    {
      "inputs": [
        {
          "internalType": "address",
          "name": "owner",
          "type": "address"
        },
        {
          "internalType": "address",
          "name": "operator",
          "type": "address"
        }
      ],
      "name": "isApprovedForAll",
      "outputs": [
        {
          "internalType": "bool",
          "name": "",
          "type": "bool"
        }
      ],
      "stateMutability": "view",
      "type": "function"
    },
    {
      "inputs": [],
      "name": "isRegistered",
      "outputs": [
        {
          "internalType": "bool",
          "name": "",
          "type": "bool"
        }
      ],
      "stateMutability": "view",
      "type": "function"
    },
    {
      "inputs": [],
      "name": "name",
      "outputs": [
        {
          "internalType": "string",
          "name": "",
          "type": "string"
        }
      ],
      "stateMutability": "view",
      "type": "function"
    },
    {
      "inputs": [
        {
          "internalType": "uint256",
          "name": "tokenId",
          "type": "uint256"
        }
      ],
      "name": "ownerOf",
      "outputs": [
        {
          "internalType": "address",
          "name": "",
          "type": "address"
        }
      ],
      "stateMutability": "view",
      "type": "function"
    },
    {
      "inputs": [
        {
          "internalType": "address",
          "name": "",
          "type": "address"
        },
        {
          "internalType": "uint256",
          "name": "",
          "type": "uint256"
        }
      ],
      "name": "platform",
      "outputs": [
        {
          "internalType": "string",
          "name": "platformName",
          "type": "string"
        },
        {
          "internalType": "string",
          "name": "token",
          "type": "string"
        },
        {
          "internalType": "uint256",
          "name": "platform_id",
          "type": "uint256"
        },
        {
          "internalType": "string",
          "name": "platformid",
          "type": "string"
        },
        {
          "internalType": "string",
          "name": "platformsecret",
          "type": "string"
        },
        {
          "internalType": "uint256",
          "name": "platformCount",
          "type": "uint256"
        },
        {
          "internalType": "address",
          "name": "user",
          "type": "address"
        }
      ],
      "stateMutability": "view",
      "type": "function"
    },
    {
      "inputs": [
        {
          "internalType": "address",
          "name": "",
          "type": "address"
        }
      ],
      "name": "registeredUsers",
      "outputs": [
        {
          "internalType": "bool",
          "name": "",
          "type": "bool"
        }
      ],
      "stateMutability": "view",
      "type": "function"
    },
    {
      "inputs": [
        {
          "internalType": "uint256",
          "name": "tokenId",
          "type": "uint256"
        },
        {
          "internalType": "uint256",
          "name": "price",
          "type": "uint256"
        }
      ],
      "name": "resellToken",
      "outputs": [],
      "stateMutability": "payable",
      "type": "function"
    },
    {
      "inputs": [
        {
          "internalType": "address",
          "name": "from",
          "type": "address"
        },
        {
          "internalType": "address",
          "name": "to",
          "type": "address"
        },
        {
          "internalType": "uint256",
          "name": "tokenId",
          "type": "uint256"
        }
      ],
      "name": "safeTransferFrom",
      "outputs": [],
      "stateMutability": "nonpayable",
      "type": "function"
    },
    {
      "inputs": [
        {
          "internalType": "address",
          "name": "from",
          "type": "address"
        },
        {
          "internalType": "address",
          "name": "to",
          "type": "address"
        },
        {
          "internalType": "uint256",
          "name": "tokenId",
          "type": "uint256"
        },
        {
          "internalType": "bytes",
          "name": "data",
          "type": "bytes"
        }
      ],
      "name": "safeTransferFrom",
      "outputs": [],
      "stateMutability": "nonpayable",
      "type": "function"
    },
    {
      "inputs": [
        {
          "internalType": "address",
          "name": "operator",
          "type": "address"
        },
        {
          "internalType": "bool",
          "name": "approved",
          "type": "bool"
        }
      ],
      "name": "setApprovalForAll",
      "outputs": [],
      "stateMutability": "nonpayable",
      "type": "function"
    },
    {
      "inputs": [
        {
          "internalType": "bytes4",
          "name": "interfaceId",
          "type": "bytes4"
        }
      ],
      "name": "supportsInterface",
      "outputs": [
        {
          "internalType": "bool",
          "name": "",
          "type": "bool"
        }
      ],
      "stateMutability": "view",
      "type": "function"
    },
    {
      "inputs": [],
      "name": "symbol",
      "outputs": [
        {
          "internalType": "string",
          "name": "",
          "type": "string"
        }
      ],
      "stateMutability": "view",
      "type": "function"
    },
    {
      "inputs": [
        {
          "internalType": "uint256",
          "name": "id",
          "type": "uint256"
        }
      ],
      "name": "tipUser",
      "outputs": [],
      "stateMutability": "payable",
      "type": "function"
    },
    {
      "inputs": [
        {
          "internalType": "uint256",
          "name": "tokenId",
          "type": "uint256"
        }
      ],
      "name": "tokenURI",
      "outputs": [
        {
          "internalType": "string",
          "name": "",
          "type": "string"
        }
      ],
      "stateMutability": "view",
      "type": "function"
    },
    {
      "inputs": [
        {
          "internalType": "address",
          "name": "from",
          "type": "address"
        },
        {
          "internalType": "address",
          "name": "to",
          "type": "address"
        },
        {
          "internalType": "uint256",
          "name": "tokenId",
          "type": "uint256"
        }
      ],
      "name": "transferFrom",
      "outputs": [],
      "stateMutability": "nonpayable",
      "type": "function"
    },
    {
      "inputs": [
        {
          "internalType": "uint256",
          "name": "_listingPrice",
          "type": "uint256"
        }
      ],
      "name": "updateListingPrice",
      "outputs": [],
      "stateMutability": "payable",
      "type": "function"
    },
    {
      "inputs": [],
      "name": "userCount",
      "outputs": [
        {
          "internalType": "uint256",
          "name": "",
          "type": "uint256"
        }
      ],
      "stateMutability": "view",
      "type": "function"
    }
  ],
  "bytecode": "0x60806040526000600a556658d15e17628000600b553480156200002157600080fd5b50604080518082018252601081526f4c6f7665436861696e20546f6b656e7360801b6020808301918252835180850190945260048452634c43484160e01b9084015281519192916200007691600091620000a7565b5080516200008c906001906020840190620000a7565b5050600780546001600160a01b03191633179055506200018a565b828054620000b5906200014d565b90600052602060002090601f016020900481019282620000d9576000855562000124565b82601f10620000f457805160ff191683800117855562000124565b8280016001018555821562000124579182015b828111156200012457825182559160200191906001019062000107565b506200013292915062000136565b5090565b5b8082111562000132576000815560010162000137565b600181811c908216806200016257607f821691505b602082108114156200018457634e487b7160e01b600052602260045260246000fd5b50919050565b615995806200019a6000396000f3fe60806040526004361061019f5760003560e01c806301ffc9a7146101a457806306fdde03146101d957806307973ccf146101fb578063081812fc1461021f578063095ea7b3146102575780630e50cee5146102795780630f08efe0146102a957806312506f4d146102cb57806312e85585146102f85780631fbe552e1461030d578063202e37401461032f578063223668441461034457806323b872dd1461035957806337b3cd8a1461037957806342842e0e1461039957806345f8fa80146103b957806356a1dc7e146103ce5780635b473724146103ee5780636352211e1461040e5780636aa444871461042e57806370a08231146104605780638865ba66146104805780639537a1a2146104a257806395d89b41146104c25780639e0d2da8146104d7578063a22cb465146104ea578063ae677aa31461050a578063b829b1481461051d578063b88d4fde14610550578063be9af53614610570578063c337431514610583578063c87b56dd146105a5578063d1d8a068146105c5578063e219fc75146105d8578063e985e9c5146105eb578063f179573f1461060b575b600080fd5b3480156101b057600080fd5b506101c46101bf36600461491a565b610638565b60405190151581526020015b60405180910390f35b3480156101e557600080fd5b506101ee610663565b6040516101d0919061498f565b34801561020757600080fd5b50610211600a5481565b6040519081526020016101d0565b34801561022b57600080fd5b5061023f61023a3660046149a2565b6106f5565b6040516001600160a01b0390911681526020016101d0565b34801561026357600080fd5b506102776102723660046149e4565b61071c565b005b34801561028557600080fd5b506101c4610294366004614a0e565b600f6020526000908152604090205460ff1681565b3480156102b557600080fd5b506102be610837565b6040516101d09190614a29565b3480156102d757600080fd5b506102eb6102e63660046149a2565b610b6c565b6040516101d09190614bcd565b34801561030457600080fd5b50600b54610211565b34801561031957600080fd5b50610322610f11565b6040516101d09190614c2f565b34801561033b57600080fd5b506102be6112ca565b34801561035057600080fd5b506101c461163d565b34801561036557600080fd5b50610277610374366004614d05565b611666565b34801561038557600080fd5b50610277610394366004614dec565b611697565b3480156103a557600080fd5b506102776103b4366004614d05565b6119ed565b3480156103c557600080fd5b506102be611a08565b3480156103da57600080fd5b506102776103e9366004614ebd565b611d7b565b3480156103fa57600080fd5b50610277610409366004614f69565b611f23565b34801561041a57600080fd5b5061023f6104293660046149a2565b612133565b34801561043a57600080fd5b5061044e6104493660046149e4565b612167565b6040516101d096959493929190614fad565b34801561046c57600080fd5b5061021161047b366004614a0e565b6124d7565b34801561048c57600080fd5b5061049561255d565b6040516101d091906150b2565b3480156104ae57600080fd5b506102776104bd3660046150c5565b61288a565b3480156104ce57600080fd5b506101ee612b31565b6102116104e5366004615183565b612b40565b3480156104f657600080fd5b506102776105053660046151db565b612b88565b6102776105183660046149a2565b612b97565b34801561052957600080fd5b5061053d6105383660046149e4565b612c0f565b6040516101d09796959493929190615217565b34801561055c57600080fd5b5061027761056b36600461528f565b612e7e565b61027761057e3660046149a2565b612eb6565b34801561058f57600080fd5b5061059861301b565b6040516101d091906152fe565b3480156105b157600080fd5b506101ee6105c03660046149a2565b6133f4565b6102776105d33660046149a2565b613505565b6102776105e6366004615353565b61364e565b3480156105f757600080fd5b506101c4610606366004615375565b613746565b34801561061757600080fd5b5061062b6106263660046149a2565b613774565b6040516101d091906153a8565b60006001600160e01b03198216632483248360e11b148061065d575061065d82613c2c565b92915050565b60606000805461067290615455565b80601f016020809104026020016040519081016040528092919081815260200182805461069e90615455565b80156106eb5780601f106106c0576101008083540402835291602001916106eb565b820191906000526020600020905b8154815290600101906020018083116106ce57829003601f168201915b5050505050905090565b600061070082613c7c565b506000908152600460205260409020546001600160a01b031690565b600061072782612133565b9050806001600160a01b0316836001600160a01b0316141561079a5760405162461bcd60e51b815260206004820152602160248201527f4552433732313a20617070726f76616c20746f2063757272656e74206f776e656044820152603960f91b60648201526084015b60405180910390fd5b336001600160a01b03821614806107b657506107b68133613746565b6108285760405162461bcd60e51b815260206004820152603d60248201527f4552433732313a20617070726f76652063616c6c6572206973206e6f7420746f60448201527f6b656e206f776e6572206f7220617070726f76656420666f7220616c6c0000006064820152608401610791565b6108328383613ca4565b505050565b6060600061084460085490565b9050600061085160095490565b60085461085e91906154a6565b9050600080826001600160401b0381111561087b5761087b614d41565b6040519080825280602002602001820160405280156108b457816020015b6108a16146b1565b8152602001906001900390816108995790505b50905060005b84811015610b635730600c60006108d28460016154bd565b81526020810191909152604001600020600201546001600160a01b03161415610b515760006109028260016154bd565b6000818152600c60209081526040918290208251610100810184528154815260018201546001600160a01b039081169382019390935260028201549092169282019290925260038201546060820152600482015460ff161515608082015260058201805493945091929091839160a08401919061097e90615455565b80601f01602080910402602001604051908101604052809291908181526020018280546109aa90615455565b80156109f75780601f106109cc576101008083540402835291602001916109f7565b820191906000526020600020905b8154815290600101906020018083116109da57829003601f168201915b50505050508152602001600682018054610a1090615455565b80601f0160208091040260200160405190810160405280929190818152602001828054610a3c90615455565b8015610a895780601f10610a5e57610100808354040283529160200191610a89565b820191906000526020600020905b815481529060010190602001808311610a6c57829003601f168201915b50505050508152602001600782018054610aa290615455565b80601f0160208091040260200160405190810160405280929190818152602001828054610ace90615455565b8015610b1b5780601f10610af057610100808354040283529160200191610b1b565b820191906000526020600020905b815481529060010190602001808311610afe57829003601f168201915b505050505081525050848681518110610b3657610b366154d5565b6020908102919091010152610b4c6001866154bd565b945050505b80610b5b816154eb565b9150506108ba565b50949350505050565b600081815260136020908152604080832033845260118352818420858552835281842054845290915281206001015460609180826001600160401b03811115610bb757610bb7614d41565b604051908082528060200260200182016040528015610bf057816020015b610bdd61470a565b815260200190600190039081610bd55790505b50905060005b83811015610b63576000610c0b8260016154bd565b90506000601360008981526020019081526020016000206000838152602001908152602001600020905080604051806101400160405290816000820154815260200160018201548152602001600282018054610c6690615455565b80601f0160208091040260200160405190810160405280929190818152602001828054610c9290615455565b8015610cdf5780601f10610cb457610100808354040283529160200191610cdf565b820191906000526020600020905b815481529060010190602001808311610cc257829003601f168201915b5050505050815260200160038201548152602001600482018054610d0290615455565b80601f0160208091040260200160405190810160405280929190818152602001828054610d2e90615455565b8015610d7b5780601f10610d5057610100808354040283529160200191610d7b565b820191906000526020600020905b815481529060010190602001808311610d5e57829003601f168201915b50505050508152602001600582018054610d9490615455565b80601f0160208091040260200160405190810160405280929190818152602001828054610dc090615455565b8015610e0d5780601f10610de257610100808354040283529160200191610e0d565b820191906000526020600020905b815481529060010190602001808311610df057829003601f168201915b5050505050815260200160068201548152602001600782018054610e3090615455565b80601f0160208091040260200160405190810160405280929190818152602001828054610e5c90615455565b8015610ea95780601f10610e7e57610100808354040283529160200191610ea9565b820191906000526020600020905b815481529060010190602001808311610e8c57829003601f168201915b5050509183525050600882015460208201526009909101546001600160a01b03166040909101528451859087908110610ee457610ee46154d5565b6020908102919091010152610efa6001866154bd565b945050508080610f09906154eb565b915050610bf6565b336000908152600d602090815260408083206012835281842054845290915281206005015460609180826001600160401b03811115610f5257610f52614d41565b604051908082528060200260200182016040528015610fcc57816020015b610fb96040518060e0016040528060608152602001606081526020016000815260200160608152602001606081526020016000815260200160006001600160a01b031681525090565b815260200190600190039081610f705790505b50905060005b838110156112c2576000610fe78260016154bd565b336000908152600d6020908152604080832084845290915290819020815160e0810190925280549293509182908290829061102190615455565b80601f016020809104026020016040519081016040528092919081815260200182805461104d90615455565b801561109a5780601f1061106f5761010080835404028352916020019161109a565b820191906000526020600020905b81548152906001019060200180831161107d57829003601f168201915b505050505081526020016001820180546110b390615455565b80601f01602080910402602001604051908101604052809291908181526020018280546110df90615455565b801561112c5780601f106111015761010080835404028352916020019161112c565b820191906000526020600020905b81548152906001019060200180831161110f57829003601f168201915b505050505081526020016002820154815260200160038201805461114f90615455565b80601f016020809104026020016040519081016040528092919081815260200182805461117b90615455565b80156111c85780601f1061119d576101008083540402835291602001916111c8565b820191906000526020600020905b8154815290600101906020018083116111ab57829003601f168201915b505050505081526020016004820180546111e190615455565b80601f016020809104026020016040519081016040528092919081815260200182805461120d90615455565b801561125a5780601f1061122f5761010080835404028352916020019161125a565b820191906000526020600020905b81548152906001019060200180831161123d57829003601f168201915b5050509183525050600582015460208201526006909101546001600160a01b03166040909101528451859087908110611295576112956154d5565b60209081029190910101526112ab6001866154bd565b9450505080806112ba906154eb565b915050610fd2565b509392505050565b606060006112d760085490565b905060008060005b8381101561133a5733600c60006112f78460016154bd565b81526020810191909152604001600020600201546001600160a01b03161415611328576113256001846154bd565b92505b80611332816154eb565b9150506112df565b506000826001600160401b0381111561135557611355614d41565b60405190808252806020026020018201604052801561138e57816020015b61137b6146b1565b8152602001906001900390816113735790505b50905060005b84811015610b635733600c60006113ac8460016154bd565b81526020810191909152604001600020600201546001600160a01b0316141561162b5760006113dc8260016154bd565b6000818152600c60209081526040918290208251610100810184528154815260018201546001600160a01b039081169382019390935260028201549092169282019290925260038201546060820152600482015460ff161515608082015260058201805493945091929091839160a08401919061145890615455565b80601f016020809104026020016040519081016040528092919081815260200182805461148490615455565b80156114d15780601f106114a6576101008083540402835291602001916114d1565b820191906000526020600020905b8154815290600101906020018083116114b457829003601f168201915b505050505081526020016006820180546114ea90615455565b80601f016020809104026020016040519081016040528092919081815260200182805461151690615455565b80156115635780601f1061153857610100808354040283529160200191611563565b820191906000526020600020905b81548152906001019060200180831161154657829003601f168201915b5050505050815260200160078201805461157c90615455565b80601f01602080910402602001604051908101604052809291908181526020018280546115a890615455565b80156115f55780601f106115ca576101008083540402835291602001916115f5565b820191906000526020600020905b8154815290600101906020018083116115d857829003601f168201915b505050505081525050848681518110611610576116106154d5565b60209081029190910101526116266001866154bd565b945050505b80611635816154eb565b915050611394565b336000908152600f602052604081205460ff161515600114156116605750600190565b50600090565b6116703382613d12565b61168c5760405162461bcd60e51b815260040161079190615506565b610832838383613d70565b336000908152600f602052604090205460ff166119e657600a80549060006116be836154eb565b9091555050600a5460008181526014602090815260408083203380855260158452919093209383556001830180546001600160a01b03191690911790558751919291611712916002850191908a0190614766565b5085516117289060038401906020890190614766565b50845161173e9060048401906020880190614766565b5083516117549060058401906020870190614766565b50825161176a9060068401906020860190614766565b50600060078301819055338152600f60209081526040909120805460ff19166001179055600a54825587516117a7916002840191908a0190614766565b5085516117bd9060038301906020890190614766565b5060018181018054336001600160a01b031991821681178355600090815260156020526040902084548155915492820180546001600160a01b039094169390911692909217909155600280830180548493928301919061181c90615455565b6118279291906147ea565b50600382018160030190805461183c90615455565b6118479291906147ea565b50600482018160040190805461185c90615455565b6118679291906147ea565b50600582018160050190805461187c90615455565b6118879291906147ea565b50600682018160060190805461189c90615455565b6118a79291906147ea565b50600791820154910155600a5460009081526014602052604090208254815560018084015490820180546001600160a01b0319166001600160a01b03909216919091179055600280840180548593928301919061190390615455565b61190e9291906147ea565b50600382018160030190805461192390615455565b61192e9291906147ea565b50600482018160040190805461194390615455565b61194e9291906147ea565b50600582018160050190805461196390615455565b61196e9291906147ea565b50600682018160060190805461198390615455565b61198e9291906147ea565b50600791820154908201558254908301546040517fd2e5a58284b1c20aeede6c656706fddc4aaac6ea080cded927990bddd238a0eb926119db92909133918c918c918c918c918c91615553565b60405180910390a150505b5050505050565b61083283838360405180602001604052806000815250612e7e565b60606000611a1560085490565b905060008060005b83811015611a785733600c6000611a358460016154bd565b81526020810191909152604001600020600101546001600160a01b03161415611a6657611a636001846154bd565b92505b80611a70816154eb565b915050611a1d565b506000826001600160401b03811115611a9357611a93614d41565b604051908082528060200260200182016040528015611acc57816020015b611ab96146b1565b815260200190600190039081611ab15790505b50905060005b84811015610b635733600c6000611aea8460016154bd565b81526020810191909152604001600020600101546001600160a01b03161415611d69576000611b1a8260016154bd565b6000818152600c60209081526040918290208251610100810184528154815260018201546001600160a01b039081169382019390935260028201549092169282019290925260038201546060820152600482015460ff161515608082015260058201805493945091929091839160a084019190611b9690615455565b80601f0160208091040260200160405190810160405280929190818152602001828054611bc290615455565b8015611c0f5780601f10611be457610100808354040283529160200191611c0f565b820191906000526020600020905b815481529060010190602001808311611bf257829003601f168201915b50505050508152602001600682018054611c2890615455565b80601f0160208091040260200160405190810160405280929190818152602001828054611c5490615455565b8015611ca15780601f10611c7657610100808354040283529160200191611ca1565b820191906000526020600020905b815481529060010190602001808311611c8457829003601f168201915b50505050508152602001600782018054611cba90615455565b80601f0160208091040260200160405190810160405280929190818152602001828054611ce690615455565b8015611d335780601f10611d0857610100808354040283529160200191611d33565b820191906000526020600020905b815481529060010190602001808311611d1657829003601f168201915b505050505081525050848681518110611d4e57611d4e6154d5565b6020908102919091010152611d646001866154bd565b945050505b80611d73816154eb565b915050611ad2565b33600090815260126020526040902054611d969060016154bd565b336000908152601260209081526040808320849055600d825280832093835292815291902085519091611dcd918391880190614766565b508351611de39060018301906020870190614766565b50336000908152601260209081526040909120546002830181905560058301558351611e1791600384019190860190614766565b508151611e2d9060048301906020850190614766565b506006810180546001600160a01b031916339081179091556000908152600d60209081526040808320601283528184205484529091529020815482919081908390611e7790615455565b611e829291906147ea565b506001820181600101908054611e9790615455565b611ea29291906147ea565b50600282015481600201556003820181600301908054611ec190615455565b611ecc9291906147ea565b506004820181600401908054611ee190615455565b611eec9291906147ea565b5060058281015490820155600691820154910180546001600160a01b0319166001600160a01b039092169190911790555050505050565b33600090815260106020526040902054611f3e9060016154bd565b336000818152601060208181526040808420869055600e82528084208685528252832093909252815260028201839055600182019290925583519091611f8b916003840191860190614766565b50818155600e80820180546001600160a01b03191633908117909155600090815260209182526040808220601084528183205483529092522082815560018083015490820155600280830154908201556003808301805484939283019190611ff290615455565b611ffd9291906147ea565b5060048201816004016000820154816000015560018201548160010155600282018160020190805461202e90615455565b6120399291906147ea565b5060038201548160030155600482018160040190805461205890615455565b6120639291906147ea565b50600582018160050190805461207890615455565b6120839291906147ea565b506006820154816006015560078201816007019080546120a290615455565b6120ad9291906147ea565b5060088281015490820155600991820154910180546001600160a01b03199081166001600160a01b0393841617909155600e93840154929093018054909316911617905560018101546040517f1ab1e3deaf766b73268be743e461b11f32921eb946d2315530de558762601aba9061212690869061498f565b60405180910390a2505050565b60008061213f83613ec2565b90506001600160a01b03811661065d5760405162461bcd60e51b8152600401610791906155e4565b600e602052816000526040600020602052806000526040600020600091509150508060000154908060010154908060020154908060030180546121a990615455565b80601f01602080910402602001604051908101604052809291908181526020018280546121d590615455565b80156122225780601f106121f757610100808354040283529160200191612222565b820191906000526020600020905b81548152906001019060200180831161220557829003601f168201915b5050505050908060040160405180610140016040529081600082015481526020016001820154815260200160028201805461225c90615455565b80601f016020809104026020016040519081016040528092919081815260200182805461228890615455565b80156122d55780601f106122aa576101008083540402835291602001916122d5565b820191906000526020600020905b8154815290600101906020018083116122b857829003601f168201915b50505050508152602001600382015481526020016004820180546122f890615455565b80601f016020809104026020016040519081016040528092919081815260200182805461232490615455565b80156123715780601f1061234657610100808354040283529160200191612371565b820191906000526020600020905b81548152906001019060200180831161235457829003601f168201915b5050505050815260200160058201805461238a90615455565b80601f01602080910402602001604051908101604052809291908181526020018280546123b690615455565b80156124035780601f106123d857610100808354040283529160200191612403565b820191906000526020600020905b8154815290600101906020018083116123e657829003601f168201915b505050505081526020016006820154815260200160078201805461242690615455565b80601f016020809104026020016040519081016040528092919081815260200182805461245290615455565b801561249f5780601f106124745761010080835404028352916020019161249f565b820191906000526020600020905b81548152906001019060200180831161248257829003601f168201915b5050509183525050600882015460208201526009909101546001600160a01b03908116604090920191909152600e9092015490911686565b60006001600160a01b0382166125415760405162461bcd60e51b815260206004820152602960248201527f4552433732313a2061646472657373207a65726f206973206e6f7420612076616044820152683634b21037bbb732b960b91b6064820152608401610791565b506001600160a01b031660009081526003602052604090205490565b612565614865565b336000908152601560209081526040918290208251610100810184528154815260018201546001600160a01b03169281019290925260028101805492939192918401916125b190615455565b80601f01602080910402602001604051908101604052809291908181526020018280546125dd90615455565b801561262a5780601f106125ff5761010080835404028352916020019161262a565b820191906000526020600020905b81548152906001019060200180831161260d57829003601f168201915b5050505050815260200160038201805461264390615455565b80601f016020809104026020016040519081016040528092919081815260200182805461266f90615455565b80156126bc5780601f10612691576101008083540402835291602001916126bc565b820191906000526020600020905b81548152906001019060200180831161269f57829003601f168201915b505050505081526020016004820180546126d590615455565b80601f016020809104026020016040519081016040528092919081815260200182805461270190615455565b801561274e5780601f106127235761010080835404028352916020019161274e565b820191906000526020600020905b81548152906001019060200180831161273157829003601f168201915b5050505050815260200160058201805461276790615455565b80601f016020809104026020016040519081016040528092919081815260200182805461279390615455565b80156127e05780601f106127b5576101008083540402835291602001916127e0565b820191906000526020600020905b8154815290600101906020018083116127c357829003601f168201915b505050505081526020016006820180546127f990615455565b80601f016020809104026020016040519081016040528092919081815260200182805461282590615455565b80156128725780601f1061284757610100808354040283529160200191612872565b820191906000526020600020905b81548152906001019060200180831161285557829003601f168201915b50505050508152602001600782015481525050905090565b600085511161289857600080fd5b60008351116128a657600080fd5b60008251116128b457600080fd5b600084116128c157600080fd5b3360009081526011602090815260408083208984529091529020546128e79060016154bd565b3360009081526011602090815260408083208a8452808352818420859055601383528184208585528352908320848155928a9052815260018201929092558651909161293a916002840191890190614766565b506003810185905583516129579060048301906020870190614766565b50825161296d9060058301906020860190614766565b5060068101879055815161298a9060078301906020850190614766565b504260088201556009810180546001600160a01b031916339081179091556000888152601360209081526040808320938352601182528083208b8452825280832054835292905220815481556001808301549082015560028083018054849392830191906129f790615455565b612a029291906147ea565b50600382015481600301556004820181600401908054612a2190615455565b612a2c9291906147ea565b506005820181600501908054612a4190615455565b612a4c9291906147ea565b50600682015481600601556007820181600701908054612a6b90615455565b612a769291906147ea565b50600882015481600801556009820160009054906101000a90046001600160a01b03168160090160006101000a8154816001600160a01b0302191690836001600160a01b0316021790555090505080600001547f46255e5a47f8c7a10e17fb87e1d3d448ee6c4f8b4ee53f30d5263acdf2d8c9fd826001015483600201846003015485600401866005018d88600701896008015433604051612b20999897969594939291906156b6565b60405180910390a250505050505050565b60606001805461067290615455565b6000612b50600880546001019055565b6000612b5b60085490565b9050612b673382613edd565b612b718188613fd8565b612b7e818787878761409b565b9695505050505050565b612b93338383614256565b5050565b6007546001600160a01b03163314612c0a5760405162461bcd60e51b815260206004820152603060248201527f4f6e6c79206d61726b6574706c616365206f776e65722063616e20757064617460448201526f32903634b9ba34b73390383934b1b29760811b6064820152608401610791565b600b55565b600d602090815260009283526040808420909152908252902080548190612c3590615455565b80601f0160208091040260200160405190810160405280929190818152602001828054612c6190615455565b8015612cae5780601f10612c8357610100808354040283529160200191612cae565b820191906000526020600020905b815481529060010190602001808311612c9157829003601f168201915b505050505090806001018054612cc390615455565b80601f0160208091040260200160405190810160405280929190818152602001828054612cef90615455565b8015612d3c5780601f10612d1157610100808354040283529160200191612d3c565b820191906000526020600020905b815481529060010190602001808311612d1f57829003601f168201915b505050505090806002015490806003018054612d5790615455565b80601f0160208091040260200160405190810160405280929190818152602001828054612d8390615455565b8015612dd05780601f10612da557610100808354040283529160200191612dd0565b820191906000526020600020905b815481529060010190602001808311612db357829003601f168201915b505050505090806004018054612de590615455565b80601f0160208091040260200160405190810160405280929190818152602001828054612e1190615455565b8015612e5e5780601f10612e3357610100808354040283529160200191612e5e565b820191906000526020600020905b815481529060010190602001808311612e4157829003601f168201915b5050505060058301546006909301549192916001600160a01b0316905087565b612e883383613d12565b612ea45760405162461bcd60e51b815260040161079190615506565b612eb084848484614321565b50505050565b6000818152600c6020526040902060038101546001909101546001600160a01b0316348214612f4f576040805162461bcd60e51b81526020600482015260248101919091527f506c65617365207375626d6974207468652061736b696e67207072696365206960448201527f6e206f7264657220746f20636f6d706c657465207468652070757263686173656064820152608401610791565b6000838152600c602052604090206002810180546001600160a01b0319908116331790915560048201805460ff1916600190811790915590910180549091169055612f9e600980546001019055565b612fa9303385613d70565b600754600b546040516001600160a01b039092169181156108fc0291906000818181858888f19350505050158015612fe5573d6000803e3d6000fd5b506040516001600160a01b038216903480156108fc02916000818181858888f19350505050158015612eb0573d6000803e3d6000fd5b600a54606090600080826001600160401b0381111561303c5761303c614d41565b60405190808252806020026020018201604052801561307557816020015b613062614865565b81526020019060019003908161305a5790505b50905060005b838110156112c25760006130908260016154bd565b6000818152601460209081526040918290208251610100810184528154815260018201546001600160a01b03169281019290925260028101805494955090939192849290840191906130e190615455565b80601f016020809104026020016040519081016040528092919081815260200182805461310d90615455565b801561315a5780601f1061312f5761010080835404028352916020019161315a565b820191906000526020600020905b81548152906001019060200180831161313d57829003601f168201915b5050505050815260200160038201805461317390615455565b80601f016020809104026020016040519081016040528092919081815260200182805461319f90615455565b80156131ec5780601f106131c1576101008083540402835291602001916131ec565b820191906000526020600020905b8154815290600101906020018083116131cf57829003601f168201915b5050505050815260200160048201805461320590615455565b80601f016020809104026020016040519081016040528092919081815260200182805461323190615455565b801561327e5780601f106132535761010080835404028352916020019161327e565b820191906000526020600020905b81548152906001019060200180831161326157829003601f168201915b5050505050815260200160058201805461329790615455565b80601f01602080910402602001604051908101604052809291908181526020018280546132c390615455565b80156133105780601f106132e557610100808354040283529160200191613310565b820191906000526020600020905b8154815290600101906020018083116132f357829003601f168201915b5050505050815260200160068201805461332990615455565b80601f016020809104026020016040519081016040528092919081815260200182805461335590615455565b80156133a25780601f10613377576101008083540402835291602001916133a2565b820191906000526020600020905b81548152906001019060200180831161338557829003601f168201915b505050505081526020016007820154815250508486815181106133c7576133c76154d5565b60209081029190910101526133dd6001866154bd565b9450505080806133ec906154eb565b91505061307b565b60606133ff82613c7c565b6000828152600660205260408120805461341890615455565b80601f016020809104026020016040519081016040528092919081815260200182805461344490615455565b80156134915780601f1061346657610100808354040283529160200191613491565b820191906000526020600020905b81548152906001019060200180831161347457829003601f168201915b5050505050905060006134af60408051602081019091526000815290565b90508051600014156134c2575092915050565b8151156134f45780826040516020016134dc929190615740565b60405160208183030381529060405292505050919050565b6134fd84614354565b949350505050565b6000818152601460205260408082206001810154915190926001600160a01b03909216913480156108fc02929091818181858888f19350505050158015613550573d6000803e3d6000fd5b5034816007015461356191906154bd565b600782015560008281526014602052604090208154815560018083015490820180546001600160a01b0319166001600160a01b0390921691909117905560028083018054849392830191906135b590615455565b6135c09291906147ea565b5060038201816003019080546135d590615455565b6135e09291906147ea565b5060048201816004019080546135f590615455565b6136009291906147ea565b50600582018160050190805461361590615455565b6136209291906147ea565b50600682018160060190805461363590615455565b6136409291906147ea565b506007918201549101555050565b6000828152600c60205260409020600201546001600160a01b031633146136ca5760405162461bcd60e51b815260206004820152602a60248201527f4f6e6c79206974656d206f776e65722063616e20706572666f726d20746869736044820152691037b832b930ba34b7b760b11b6064820152608401610791565b600b5434146136eb5760405162461bcd60e51b81526004016107919061576f565b6000828152600c6020526040902060048101805460ff19169055600381018290556001810180546001600160a01b03199081163317909155600290910180549091163017905561373b60096143c8565b612b93333084613d70565b6001600160a01b03918216600090815260056020908152604080832093909416825291909152205460ff1690565b336000908152600e602090815260408083206010835281842054845290915281206001015460609180826001600160401b038111156137b5576137b5614d41565b6040519080825280602002602001820160405280156137ee57816020015b6137db6148b3565b8152602001906001900390816137d35790505b50905060005b83811015610b6357336000908152600e6020526040812087916138188460016154bd565b8152602001908152602001600020600001541415613c1a57600061383d8260016154bd565b90506000600e6000336001600160a01b03166001600160a01b0316815260200190815260200160002060008381526020019081526020016000209050806040518060c00160405290816000820154815260200160018201548152602001600282015481526020016003820180546138b390615455565b80601f01602080910402602001604051908101604052809291908181526020018280546138df90615455565b801561392c5780601f106139015761010080835404028352916020019161392c565b820191906000526020600020905b81548152906001019060200180831161390f57829003601f168201915b505050505081526020016004820160405180610140016040529081600082015481526020016001820154815260200160028201805461396a90615455565b80601f016020809104026020016040519081016040528092919081815260200182805461399690615455565b80156139e35780601f106139b8576101008083540402835291602001916139e3565b820191906000526020600020905b8154815290600101906020018083116139c657829003601f168201915b5050505050815260200160038201548152602001600482018054613a0690615455565b80601f0160208091040260200160405190810160405280929190818152602001828054613a3290615455565b8015613a7f5780601f10613a5457610100808354040283529160200191613a7f565b820191906000526020600020905b815481529060010190602001808311613a6257829003601f168201915b50505050508152602001600582018054613a9890615455565b80601f0160208091040260200160405190810160405280929190818152602001828054613ac490615455565b8015613b115780601f10613ae657610100808354040283529160200191613b11565b820191906000526020600020905b815481529060010190602001808311613af457829003601f168201915b5050505050815260200160068201548152602001600782018054613b3490615455565b80601f0160208091040260200160405190810160405280929190818152602001828054613b6090615455565b8015613bad5780601f10613b8257610100808354040283529160200191613bad565b820191906000526020600020905b815481529060010190602001808311613b9057829003601f168201915b505050918352505060088201546020808301919091526009909201546001600160a01b03908116604090920191909152918352600e9390930154169101528451859087908110613bff57613bff6154d5565b6020908102919091010152613c156001866154bd565b945050505b80613c24816154eb565b9150506137f4565b60006001600160e01b031982166380ac58cd60e01b1480613c5d57506001600160e01b03198216635b5e139f60e01b145b8061065d57506301ffc9a760e01b6001600160e01b031983161461065d565b613c858161441d565b613ca15760405162461bcd60e51b8152600401610791906155e4565b50565b600081815260046020526040902080546001600160a01b0319166001600160a01b0384169081179091558190613cd982612133565b6001600160a01b03167f8c5be1e5ebec7d5bd14f71427d1e84f3dd0314c0f7b2291e5b200ac8c7c3b92560405160405180910390a45050565b600080613d1e83612133565b9050806001600160a01b0316846001600160a01b03161480613d455750613d458185613746565b806134fd5750836001600160a01b0316613d5e846106f5565b6001600160a01b031614949350505050565b826001600160a01b0316613d8382612133565b6001600160a01b031614613da95760405162461bcd60e51b8152600401610791906157b3565b6001600160a01b038216613e0b5760405162461bcd60e51b8152602060048201526024808201527f4552433732313a207472616e7366657220746f20746865207a65726f206164646044820152637265737360e01b6064820152608401610791565b826001600160a01b0316613e1e82612133565b6001600160a01b031614613e445760405162461bcd60e51b8152600401610791906157b3565b600081815260046020908152604080832080546001600160a01b03199081169091556001600160a01b03878116808652600385528386208054600019019055908716808652838620805460010190558686526002909452828520805490921684179091559051849360008051602061594083398151915291a4505050565b6000908152600260205260409020546001600160a01b031690565b6001600160a01b038216613f335760405162461bcd60e51b815260206004820181905260248201527f4552433732313a206d696e7420746f20746865207a65726f20616464726573736044820152606401610791565b613f3c8161441d565b15613f595760405162461bcd60e51b8152600401610791906157f8565b613f628161441d565b15613f7f5760405162461bcd60e51b8152600401610791906157f8565b6001600160a01b038216600081815260036020908152604080832080546001019055848352600290915280822080546001600160a01b031916841790555183929190600080516020615940833981519152908290a45050565b613fe18261441d565b6140445760405162461bcd60e51b815260206004820152602e60248201527f45524337323155524953746f726167653a2055524920736574206f66206e6f6e60448201526d32bc34b9ba32b73a103a37b5b2b760911b6064820152608401610791565b6000828152600660209081526040909120825161406392840190614766565b506040518281527ff8e1a15aba9398e019f0b49df1a4fde98ee17ae345cb5f6b5e2c27f5033e8ce79060200160405180910390a15050565b600084116140ea5760405162461bcd60e51b815260206004820152601c60248201527b5072696365206d757374206265206174206c6561737420312077656960201b6044820152606401610791565b600b54341461410b5760405162461bcd60e51b81526004016107919061576f565b6040805161010081018252868152336020808301918252308385019081526060840189815260006080860181815260a087018b815260c088018b905260e088018a90528d8352600c8652979091208651815594516001860180546001600160a01b03199081166001600160a01b039384161790915593516002870180549095169116179092555160038401555160048301805460ff191691151591909117905592518051929391926141c39260058501920190614766565b5060c082015180516141df916006840191602090910190614766565b5060e082015180516141fb916007840191602090910190614766565b5090505061420a333087613d70565b847f92d5fdcbed7ff2adc67c1a3e81b1f62968651ced121e6ea00b2a9edbf1882d603330876000888888604051614247979695949392919061582e565b60405180910390a25050505050565b816001600160a01b0316836001600160a01b031614156142b45760405162461bcd60e51b815260206004820152601960248201527822a9219b99189d1030b8383937bb32903a379031b0b63632b960391b6044820152606401610791565b6001600160a01b03838116600081815260056020908152604080832094871680845294825291829020805460ff191686151590811790915591519182527f17307eab39ab6107e8899845ad3d59bd9653f200f220920489ca2b5937696c31910160405180910390a3505050565b61432c848484613d70565b6143388484848461443a565b612eb05760405162461bcd60e51b81526004016107919061589d565b606061435f82613c7c565b600061437660408051602081019091526000815290565b9050600081511161439657604051806020016040528060008152506143c1565b806143a084614547565b6040516020016143b1929190615740565b6040516020818303038152906040525b9392505050565b8054806144155760405162461bcd60e51b815260206004820152601b60248201527a436f756e7465723a2064656372656d656e74206f766572666c6f7760281b6044820152606401610791565b600019019055565b60008061442983613ec2565b6001600160a01b0316141592915050565b60006001600160a01b0384163b1561453c57604051630a85bd0160e11b81526001600160a01b0385169063150b7a029061447e9033908990889088906004016158ef565b602060405180830381600087803b15801561449857600080fd5b505af19250505080156144c8575060408051601f3d908101601f191682019092526144c591810190615922565b60015b614522573d8080156144f6576040519150601f19603f3d011682016040523d82523d6000602084013e6144fb565b606091505b50805161451a5760405162461bcd60e51b81526004016107919061589d565b805181602001fd5b6001600160e01b031916630a85bd0160e11b1490506134fd565b506001949350505050565b60606000614554836145db565b60010190506000816001600160401b0381111561457357614573614d41565b6040519080825280601f01601f19166020018201604052801561459d576020820181803683370190505b5090508181016020015b600019016f181899199a1a9b1b9c1cb0b131b232b360811b600a86061a8153600a85049450846145d6576112c2565b6145a7565b60008072184f03e93ff9f4daa797ed6e38ed64bf6a1f0160401b831061461a5772184f03e93ff9f4daa797ed6e38ed64bf6a1f0160401b830492506040015b6904ee2d6d415b85acef8160201b8310614644576904ee2d6d415b85acef8160201b830492506020015b662386f26fc10000831061466257662386f26fc10000830492506010015b6305f5e100831061467a576305f5e100830492506008015b612710831061468e57612710830492506004015b606483106146a0576064830492506002015b600a831061065d5760010192915050565b6040518061010001604052806000815260200160006001600160a01b0316815260200160006001600160a01b03168152602001600081526020016000151581526020016060815260200160608152602001606081525090565b60405180610140016040528060008152602001600081526020016060815260200160008152602001606081526020016060815260200160008152602001606081526020016000815260200160006001600160a01b031681525090565b82805461477290615455565b90600052602060002090601f01602090048101928261479457600085556147da565b82601f106147ad57805160ff19168380011785556147da565b828001600101855582156147da579182015b828111156147da5782518255916020019190600101906147bf565b506147e69291506148ef565b5090565b8280546147f690615455565b90600052602060002090601f01602090048101928261481857600085556147da565b82601f1061482957805485556147da565b828001600101855582156147da57600052602060002091601f016020900482015b828111156147da57825482559160010191906001019061484a565b6040518061010001604052806000815260200160006001600160a01b031681526020016060815260200160608152602001606081526020016060815260200160608152602001600081525090565b6040518060c00160405280600081526020016000815260200160008152602001606081526020016148e261470a565b8152600060209091015290565b5b808211156147e657600081556001016148f0565b6001600160e01b031981168114613ca157600080fd5b60006020828403121561492c57600080fd5b81356143c181614904565b60005b8381101561495257818101518382015260200161493a565b83811115612eb05750506000910152565b6000815180845261497b816020860160208601614937565b601f01601f19169290920160200192915050565b6020815260006143c16020830184614963565b6000602082840312156149b457600080fd5b5035919050565b6001600160a01b03169052565b80356001600160a01b03811681146149df57600080fd5b919050565b600080604083850312156149f757600080fd5b614a00836149c8565b946020939093013593505050565b600060208284031215614a2057600080fd5b6143c1826149c8565b60006020808301818452808551808352604092508286019150828160051b87010184880160005b83811015614b0757603f1989840301855281516101008151855288820151614a7a8a8701826149bb565b5087820151614a8b898701826149bb565b506060828101519086015260808083015115159086015260a080830151818701839052614aba83880182614963565b9250505060c08083015186830382880152614ad58382614963565b9250505060e08083015192508582038187015250614af38183614963565b968901969450505090860190600101614a50565b509098975050505050505050565b600061014082518452602083015160208501526040830151816040860152614b3f82860182614963565b9150506060830151606085015260808301518482036080860152614b638282614963565b91505060a083015184820360a0860152614b7d8282614963565b91505060c083015160c085015260e083015184820360e0860152614ba18282614963565b91505061010080840151818601525061012080840151614bc3828701826149bb565b5090949350505050565b6000602080830181845280855180835260408601915060408160051b870101925083870160005b82811015614c2257603f19888603018452614c10858351614b15565b94509285019290850190600101614bf4565b5092979650505050505050565b60006020808301818452808551808352604092508286019150828160051b87010184880160005b83811015614b0757603f19898403018552815160e08151818652614c7c82870182614963565b915050888201518582038a870152614c948282614963565b915050878201518886015260608083015186830382880152614cb68382614963565b9250505060808083015186830382880152614cd18382614963565b60a0858101519089015260c0948501516001600160a01b031694909701939093525050509386019390860190600101614c56565b600080600060608486031215614d1a57600080fd5b614d23846149c8565b9250614d31602085016149c8565b9150604084013590509250925092565b634e487b7160e01b600052604160045260246000fd5b60006001600160401b0380841115614d7157614d71614d41565b604051601f8501601f19908116603f01168101908282118183101715614d9957614d99614d41565b81604052809350858152868686011115614db257600080fd5b858560208301376000602087830101525050509392505050565b600082601f830112614ddd57600080fd5b6143c183833560208501614d57565b600080600080600060a08688031215614e0457600080fd5b85356001600160401b0380821115614e1b57600080fd5b614e2789838a01614dcc565b96506020880135915080821115614e3d57600080fd5b614e4989838a01614dcc565b95506040880135915080821115614e5f57600080fd5b614e6b89838a01614dcc565b94506060880135915080821115614e8157600080fd5b614e8d89838a01614dcc565b93506080880135915080821115614ea357600080fd5b50614eb088828901614dcc565b9150509295509295909350565b60008060008060808587031215614ed357600080fd5b84356001600160401b0380821115614eea57600080fd5b614ef688838901614dcc565b95506020870135915080821115614f0c57600080fd5b614f1888838901614dcc565b94506040870135915080821115614f2e57600080fd5b614f3a88838901614dcc565b93506060870135915080821115614f5057600080fd5b50614f5d87828801614dcc565b91505092959194509250565b60008060408385031215614f7c57600080fd5b82356001600160401b03811115614f9257600080fd5b614f9e85828601614dcc565b95602094909401359450505050565b86815285602082015284604082015260c060608201526000614fd260c0830186614963565b8281036080840152614fe48186614b15565b91505060018060a01b03831660a0830152979650505050505050565b600061010082518452602083015161501b60208601826149bb565b50604083015181604086015261503382860182614963565b9150506060830151848203606086015261504d8282614963565b915050608083015184820360808601526150678282614963565b91505060a083015184820360a08601526150818282614963565b91505060c083015184820360c086015261509b8282614963565b91505060e083015160e08501528091505092915050565b6020815260006143c16020830184615000565b60008060008060008060c087890312156150de57600080fd5b8635955060208701356001600160401b03808211156150fc57600080fd5b6151088a838b01614dcc565b965060408901359550606089013591508082111561512557600080fd5b6151318a838b01614dcc565b9450608089013591508082111561514757600080fd5b6151538a838b01614dcc565b935060a089013591508082111561516957600080fd5b5061517689828a01614dcc565b9150509295509295509295565b600080600080600060a0868803121561519b57600080fd5b85356001600160401b03808211156151b257600080fd5b6151be89838a01614dcc565b9650602088013595506040880135915080821115614e5f57600080fd5b600080604083850312156151ee57600080fd5b6151f7836149c8565b91506020830135801515811461520c57600080fd5b809150509250929050565b60e08152600061522a60e083018a614963565b828103602084015261523c818a614963565b905087604084015282810360608401526152568188614963565b9050828103608084015261526a8187614963565b60a084019590955250506001600160a01b039190911660c09091015295945050505050565b600080600080608085870312156152a557600080fd5b6152ae856149c8565b93506152bc602086016149c8565b92506040850135915060608501356001600160401b038111156152de57600080fd5b8501601f810187136152ef57600080fd5b614f5d87823560208401614d57565b6000602080830181845280855180835260408601915060408160051b870101925083870160005b82811015614c2257603f19888603018452615341858351615000565b94509285019290850190600101615325565b6000806040838503121561536657600080fd5b50508035926020909101359150565b6000806040838503121561538857600080fd5b615391836149c8565b915061539f602084016149c8565b90509250929050565b60006020808301818452808551808352604092508286019150828160051b87010184880160005b83811015614b0757603f19898403018552815160c08151855288820151898601528782015188860152606080830151828288015261540f83880182614963565b925050506080808301518683038288015261542a8382614b15565b60a0948501516001600160a01b031697909401969096525050948701949250908601906001016153cf565b600181811c9082168061546957607f821691505b6020821081141561548a57634e487b7160e01b600052602260045260246000fd5b50919050565b634e487b7160e01b600052601160045260246000fd5b6000828210156154b8576154b8615490565b500390565b600082198211156154d0576154d0615490565b500190565b634e487b7160e01b600052603260045260246000fd5b60006000198214156154ff576154ff615490565b5060010190565b6020808252602d908201527f4552433732313a2063616c6c6572206973206e6f7420746f6b656e206f776e6560408201526c1c881bdc88185c1c1c9bdd9959609a1b606082015260800190565b8881526001600160a01b03881660208201526101006040820181905260009061557e8382018a614963565b905082810360608401526155928189614963565b905082810360808401526155a68188614963565b905082810360a08401526155ba8187614963565b905082810360c08401526155ce8186614963565b9150508260e08301529998505050505050505050565b602080825260189082015277115490cdcc8c4e881a5b9d985b1a59081d1bdad95b88125160421b604082015260600190565b8054600090600181811c908083168061563057607f831692505b602080841082141561565257634e487b7160e01b600052602260045260246000fd5b8388526020880182801561566d576001811461567e576156a9565b60ff198716825282820197506156a9565b60008981526020902060005b878110156156a35781548482015290860190840161568a565b83019850505b5050505050505092915050565b60006101208b83528060208401526156d08184018c615616565b905089604084015282810360608401526156ea818a615616565b905082810360808401526156fe8189615616565b90508660a084015282810360c08401526157188187615616565b60e084019590955250506001600160a01b039190911661010090910152979650505050505050565b60008351615752818460208801614937565b835190830190615766818360208801614937565b01949350505050565b60208082526024908201527f5072696365206d75737420626520657175616c20746f206c697374696e6720706040820152637269636560e01b606082015260800190565b60208082526025908201527f4552433732313a207472616e736665722066726f6d20696e636f72726563742060408201526437bbb732b960d91b606082015260800190565b6020808252601c908201527b115490cdcc8c4e881d1bdad95b88185b1c9958591e481b5a5b9d195960221b604082015260600190565b6001600160a01b0388811682528716602082015260408101869052841515606082015260e06080820181905260009061586990830186614963565b82810360a084015261587b8186614963565b905082810360c084015261588f8185614963565b9a9950505050505050505050565b60208082526032908201527f4552433732313a207472616e7366657220746f206e6f6e20455243373231526560408201527131b2b4bb32b91034b6b83632b6b2b73a32b960711b606082015260800190565b6001600160a01b0385811682528416602082015260408101839052608060608201819052600090612b7e90830184614963565b60006020828403121561593457600080fd5b81516143c18161490456feddf252ad1be2c89b69c2b068fc378daa952ba7f163c4a11628f55a4df523b3efa26469706673582212209db2f6d3e8089ab7a7b4878f44a4cb2e443622ee88bb3ff5c748ddcfbf47997864736f6c63430008090033",
  "linkReferences": {},
  "deployedLinkReferences": {}
}